Component: ARM Compiler 5.06 update 4 (build 422) Tool: armlink [4d35d2]

==============================================================================

Section Cross References

    main.o(i.OnBackupTimerEvent) refers to timer.o(i.TimerReset) for TimerReset
    main.o(i.OnBackupTimerEvent) refers to main.o(.bss) for BackupTimer
    main.o(i.OnLed1TimerEvent) refers to timer.o(i.TimerStop) for TimerStop
    main.o(i.OnLed1TimerEvent) refers to main.o(.bss) for Led1Timer
    main.o(i.OnLed1TimerEvent) refers to main.o(.data) for Led1StateChanged
    main.o(i.OnMacEvent) refers to main.o(i.ProcessRxFrame) for ProcessRxFrame
    main.o(i.OnMacEvent) refers to main.o(.data) for IsNetworkJoined
    main.o(i.OnMacEvent) refers to main.o(.bss) for ComplianceTest
    main.o(i.OnTxNextPacketTimerEvent) refers to timer.o(i.TimerStop) for TimerStop
    main.o(i.OnTxNextPacketTimerEvent) refers to main.o(.bss) for TxNextPacketTimer
    main.o(i.OnTxNextPacketTimerEvent) refers to main.o(.data) for TxNextPacket
    main.o(i.PrepareTxFrame) refers to bme280.o(i.BME280_begin) for BME280_begin
    main.o(i.PrepareTxFrame) refers to bme280.o(i.BME280_readTempC) for BME280_readTempC
    main.o(i.PrepareTxFrame) refers to bme280.o(i.BME280_readFloatPressure) for BME280_readFloatPressure
    main.o(i.PrepareTxFrame) refers to bme280.o(i.BME280_readFloatHumidity) for BME280_readFloatHumidity
    main.o(i.PrepareTxFrame) refers to main.o(.data) for AppDataSize
    main.o(i.PrepareTxFrame) refers to main.o(.bss) for AppData
    main.o(i.ProcessRxFrame) refers to gpio.o(i.GpioWrite) for GpioWrite
==============================================================================

Removing Unused input sections from the image.

    Removing main.o(.rev16_text), (4 bytes).
    Removing main.o(.revsh_text), (4 bytes).
    Removing adc-board.o(.rev16_text), (4 bytes).
    Removing adc-board.o(.revsh_text), (4 bytes).
    Removing board.o(.rev16_text), (4 bytes).
    Removing board.o(.revsh_text), (4 bytes).
    Removing board.o(i.BoardAdcSingleshot), (24 bytes).
    Removing board.o(i.BoardGetUniqueId), (104 bytes).
    Removing gpio-board.o(.rev16_text), (4 bytes).
    Removing gpio-board.o(.revsh_text), (4 bytes).
    Removing gpio-board.o(i.GpioMcuRead), (32 bytes).
    Removing gpio-board.o(i.GpioMcuRemoveInterrupt), (52 bytes).
    Removing i2c-board.o(.rev16_text), (4 bytes).
    Removing i2c-board.o(.revsh_text), (4 bytes).
    Removing i2c-board.o(i.I2cMcuDeInit), (54 bytes).
    Removing i2c-board.o(i.I2cMcuFormat), (144 bytes).
    Removing i2c-board.o(i.I2cMcuInit), (100 bytes).
    Removing i2c-board.o(i.I2cMcuReadBuffer), (660 bytes).
==============================================================================

Image Symbol Table

    Local Symbols

    Symbol Name                              Value     Ov Type        Size  Object(Section)

    ../clib/../cmprslib/zerorunl2.c          0x00000000   Number         0  __dczerorl2.o ABSOLUTE
    ../clib/microlib/division.c              0x00000000   Number         0  ldiv.o ABSOLUTE
    ../clib/microlib/division.c              0x00000000   Number         0  uldiv.o ABSOLUTE
    ../clib/microlib/division.c              0x00000000   Number         0  uidiv.o ABSOLUTE
    ../clib/microlib/errno.c                 0x00000000   Number         0  errno.o ABSOLUTE
    ../clib/microlib/init/entry.s            0x00000000   Number         0  entry.o ABSOLUTE
    ../clib/microlib/init/entry.s            0x00000000   Number         0  entry7a.o ABSOLUTE
    ../clib/microlib/init/entry.s            0x00000000   Number         0  entry2.o ABSOLUTE
    ../clib/microlib/init/entry.s            0x00000000   Number         0  entry5.o ABSOLUTE
    ../clib/microlib/init/entry.s            0x00000000   Number         0  entry8a.o ABSOLUTE
    ../clib/microlib/init/entry.s            0x00000000   Number         0  entry7b.o ABSOLUTE
    ../clib/microlib/init/entry.s            0x00000000   Number         0  entry9b.o ABSOLUTE
    ../clib/microlib/init/entry.s            0x00000000   Number         0  entry11b.o ABSOLUTE
    ../clib/microlib/init/entry.s            0x00000000   Number         0  entry11a.o ABSOLUTE
    ../clib/microlib/init/entry.s            0x00000000   Number         0  entry10b.o ABSOLUTE
    ../clib/microlib/init/entry.s            0x00000000   Number         0  entry10a.o ABSOLUTE
    ../clib/microlib/init/entry.s            0x00000000   Number         0  entry9a.o ABSOLUTE
    ../clib/microlib/init/entry.s            0x00000000   Number         0  entry8b.o ABSOLUTE
    ../clib/microlib/longlong.c              0x00000000   Number         0  llsshr.o ABSOLUTE
    ../clib/microlib/longlong.c              0x00000000   Number         0  llushr.o ABSOLUTE
    ../clib/microlib/longlong.c              0x00000000   Number         0  llshl.o ABSOLUTE
    ../clib/microlib/printf/printf.c         0x00000000   Number         0  printf4.o ABSOLUTE
    ../clib/microlib/printf/printf.c         0x00000000   Number         0  printf3.o ABSOLUTE
    ../clib/microlib/printf/printf.c         0x00000000   Number         0  printf2.o ABSOLUTE
    ../clib/microlib/printf/printf.c         0x00000000   Number         0  printf1.o ABSOLUTE
    ../clib/microlib/printf/printf.c         0x00000000   Number         0  printf5.o ABSOLUTE
    ../clib/microlib/printf/printf.c         0x00000000   Number         0  printf0.o ABSOLUTE
    ../clib/microlib/printf/printf.c         0x00000000   Number         0  printfb.o ABSOLUTE
    ../clib/microlib/printf/printf.c         0x00000000   Number         0  printfa.o ABSOLUTE
    ../clib/microlib/printf/printf.c         0x00000000   Number         0  printf8.o ABSOLUTE
    ../clib/microlib/printf/printf.c         0x00000000   Number         0  printf7.o ABSOLUTE
    ../clib/microlib/printf/printf.c         0x00000000   Number         0  printf6.o ABSOLUTE
    ../clib/microlib/string/memset.c         0x00000000   Number         0  memseta.o ABSOLUTE
    ../clib/microlib/stubs.s                 0x00000000   Number         0  useno.o ABSOLUTE
    ../clib/microlib/stubs.s                 0x00000000   Number         0  iusefp.o ABSOLUTE
    ../fplib/microlib/d2f.c                  0x00000000   Number         0  d2f.o ABSOLUTE
    ../fplib/microlib/f2d.c                  0x00000000   Number         0  f2d.o ABSOLUTE
    ../fplib/microlib/fpadd.c                0x00000000   Number         0  dadd.o ABSOLUTE
    ../fplib/microlib/fpadd.c                0x00000000   Number         0  fadd.o ABSOLUTE
    ../fplib/microlib/fpdiv.c                0x00000000   Number         0  ddiv.o ABSOLUTE
    ../fplib/microlib/fpdiv.c                0x00000000   Number         0  fdiv.o ABSOLUTE
    ../fplib/microlib/fpepilogue.c           0x00000000   Number         0  depilogue.o ABSOLUTE
    ../fplib/microlib/fpepilogue.c           0x00000000   Number         0  fepilogue.o ABSOLUTE
    ../fplib/microlib/fpfix.c                0x00000000   Number         0  dfixul.o ABSOLUTE
    ../fplib/microlib/fpfix.c                0x00000000   Number         0  dfixi.o ABSOLUTE
    ../fplib/microlib/fpfix.c                0x00000000   Number         0  dfixui.o ABSOLUTE
    ../fplib/microlib/fpfix.c                0x00000000   Number         0  ffixui.o ABSOLUTE
    ../fplib/microlib/fpflt.c                0x00000000   Number         0  dfltul.o ABSOLUTE
    ../fplib/microlib/fpflt.c                0x00000000   Number         0  fflti.o ABSOLUTE
    ../fplib/microlib/fpflt.c                0x00000000   Number         0  ffltl.o ABSOLUTE
    ../fplib/microlib/fpflt.c                0x00000000   Number         0  dflti.o ABSOLUTE
    ../fplib/microlib/fpflt.c                0x00000000   Number         0  dfltui.o ABSOLUTE
    ../fplib/microlib/fpmul.c                0x00000000   Number         0  fmul.o ABSOLUTE
    ../fplib/microlib/fpmul.c                0x00000000   Number         0  dmul.o ABSOLUTE
    ../fplib/microlib/fprnd.c                0x00000000   Number         0  drnd.o ABSOLUTE
    ../fplib/microlib/fpscalb.c              0x00000000   Number         0  dscalb.o ABSOLUTE
    ../fplib/microlib/fpsqrt.c               0x00000000   Number         0  dsqrt.o ABSOLUTE
    ../mathlib/ceil.c                        0x00000000   Number         0  ceil.o ABSOLUTE
    ../mathlib/dunder.c                      0x00000000   Number         0  dunder.o ABSOLUTE
    ../mathlib/floor.c                       0x00000000   Number         0  floor.o ABSOLUTE
    ../mathlib/fpclassify.c                  0x00000000   Number         0  fpclassify.o ABSOLUTE
    ../mathlib/poly.c                        0x00000000   Number         0  poly.o ABSOLUTE
    ../mathlib/pow.c                         0x00000000   Number         0  pow_x.o ABSOLUTE
    ../mathlib/pow.c                         0x00000000   Number         0  pow.o ABSOLUTE
    ../mathlib/qnan.c                        0x00000000   Number         0  qnan.o ABSOLUTE
    ../mathlib/round.c                       0x00000000   Number         0  round.o ABSOLUTE
    ../mathlib/sqrt.c                        0x00000000   Number         0  sqrt.o ABSOLUTE
    ../mathlib/sqrt.c                        0x00000000   Number         0  sqrt_x.o ABSOLUTE
    cdcmple.s                                0x00000000   Number         0  cdcmple.o ABSOLUTE
    cdrcmple.s                               0x00000000   Number         0  cdrcmple.o ABSOLUTE
    dc.s                                     0x00000000   Number         0  dc.o ABSOLUTE
    handlers.s                               0x00000000   Number         0  handlers.o ABSOLUTE
    init.s                                   0x00000000   Number         0  init.o ABSOLUTE
    src\\apps\\main.c                        0x00000000   Number         0  main.o ABSOLUTE
    src\\boards\\InES_ExtBoard\\adc-board.c  0x00000000   Number         0  adc-board.o ABSOLUTE
    src\\boards\\InES_ExtBoard\\bme280.c     0x00000000   Number         0  bme280.o ABSOLUTE
    src\\boards\\InES_ExtBoard\\board.c      0x00000000   Number         0  board.o ABSOLUTE
    src\\boards\\InES_ExtBoard\\cmsis\\system_stm32l1xx.c 0x00000000   Number         0  system_stm32l1xx.o ABSOLUTE
    src\\boards\\InES_ExtBoard\\gpio-board.c 0x00000000   Number         0  gpio-board.o ABSOLUTE
    src\\boards\\InES_ExtBoard\\i2c-board.c  0x00000000   Number         0  i2c-board.o ABSOLUTE
    src\\boards\\InES_ExtBoard\\rtc-board.c  0x00000000   Number         0  rtc-board.o ABSOLUTE
    src\\boards\\InES_ExtBoard\\spi-board.c  0x00000000   Number         0  spi-board.o ABSOLUTE
    src\\boards\\InES_ExtBoard\\sx1272-board.c 0x00000000   Number         0  sx1272-board.o ABSOLUTE
    src\\boards\\InES_ExtBoard\\timer-board.c 0x00000000   Number         0  timer-board.o ABSOLUTE
    src\\boards\\InES_ExtBoard\\uart-board.c 0x00000000   Number         0  uart-board.o ABSOLUTE
    src\\boards\\mcu\\stm32\\STM32L1xx_StdPeriph_Driver\\src\\misc.c 0x00000000   Number         0  misc.o ABSOLUTE
    src\\boards\\mcu\\stm32\\STM32L1xx_StdPeriph_Driver\\src\\stm32l1xx_adc.c 0x00000000   Number         0  stm32l1xx_adc.o ABSOLUTE
    src\\boards\\mcu\\stm32\\STM32L1xx_StdPeriph_Driver\\src\\stm32l1xx_dbgmcu.c 0x00000000   Number         0  stm32l1xx_dbgmcu.o ABSOLUTE
    src\\boards\\mcu\\stm32\\STM32L1xx_StdPeriph_Driver\\src\\stm32l1xx_dma.c 0x00000000   Number         0  stm32l1xx_dma.o ABSOLUTE
    src\\boards\\mcu\\stm32\\STM32L1xx_StdPeriph_Driver\\src\\stm32l1xx_exti.c 0x00000000   Number         0  stm32l1xx_exti.o ABSOLUTE
    src\\boards\\mcu\\stm32\\STM32L1xx_StdPeriph_Driver\\src\\stm32l1xx_gpio.c 0x00000000   Number         0  stm32l1xx_gpio.o ABSOLUTE
    src\\boards\\mcu\\stm32\\STM32L1xx_StdPeriph_Driver\\src\\stm32l1xx_i2c.c 0x00000000   Number         0  stm32l1xx_i2c.o ABSOLUTE
    src\\boards\\mcu\\stm32\\STM32L1xx_StdPeriph_Driver\\src\\stm32l1xx_pwr.c 0x00000000   Number         0  stm32l1xx_pwr.o ABSOLUTE
    src\\boards\\mcu\\stm32\\STM32L1xx_StdPeriph_Driver\\src\\stm32l1xx_rcc.c 0x00000000   Number         0  stm32l1xx_rcc.o ABSOLUTE
    src\\boards\\mcu\\stm32\\STM32L1xx_StdPeriph_Driver\\src\\stm32l1xx_rtc.c 0x00000000   Number         0  stm32l1xx_rtc.o ABSOLUTE
    src\\boards\\mcu\\stm32\\STM32L1xx_StdPeriph_Driver\\src\\stm32l1xx_spi.c 0x00000000   Number         0  stm32l1xx_spi.o ABSOLUTE
    src\\boards\\mcu\\stm32\\STM32L1xx_StdPeriph_Driver\\src\\stm32l1xx_syscfg.c 0x00000000   Number         0  stm32l1xx_syscfg.o ABSOLUTE
    src\\boards\\mcu\\stm32\\STM32L1xx_StdPeriph_Driver\\src\\stm32l1xx_tim.c 0x00000000   Number         0  stm32l1xx_tim.o ABSOLUTE
    src\\boards\\mcu\\stm32\\STM32L1xx_StdPeriph_Driver\\src\\stm32l1xx_usart.c 0x00000000   Number         0  stm32l1xx_usart.o ABSOLUTE
    src\\boards\\mcu\\stm32\\sysIrqHandlers.c 0x00000000   Number         0  sysirqhandlers.o ABSOLUTE
    src\\boards\\mcu\\stm32\\utilities.c     0x00000000   Number         0  utilities.o ABSOLUTE
    src\\mac\\LoRaMac-api-v3.c               0x00000000   Number         0  loramac-api-v3.o ABSOLUTE
    src\\mac\\LoRaMac.c                      0x00000000   Number         0  loramac.o ABSOLUTE
    src\\radio\\sx1272\\sx1272.c             0x00000000   Number         0  sx1272.o ABSOLUTE
    src\\system\\Retarget.c                  0x00000000   Number         0  retarget.o ABSOLUTE
    src\\system\\adc.c                       0x00000000   Number         0  adc.o ABSOLUTE
    src\\system\\debug.c                     0x00000000   Number         0  debug.o ABSOLUTE
    src\\system\\delay.c                     0x00000000   Number         0  delay.o ABSOLUTE
    src\\system\\gpio.c                      0x00000000   Number         0  gpio.o ABSOLUTE
    src\\system\\i2c.c                       0x00000000   Number         0  i2c.o ABSOLUTE
    src\\system\\timer.c                     0x00000000   Number         0  timer.o ABSOLUTE
    src\\system\\uart.c                      0x00000000   Number         0  uart.o ABSOLUTE
    src\apps\main.c                          0x00000000   Number         0  main.o ABSOLUTE
    src\boards\InES_ExtBoard\adc-board.c     0x00000000   Number         0  adc-board.o ABSOLUTE
    src\boards\InES_ExtBoard\bme280.c        0x00000000   Number         0  bme280.o ABSOLUTE
    src\boards\InES_ExtBoard\board.c         0x00000000   Number         0  board.o ABSOLUTE
    src\boards\InES_ExtBoard\cmsis\arm-std\startup_stm32l1xx_md.s 0x00000000   Number         0  startup_stm32l1xx_md.o ABSOLUTE
    src\boards\InES_ExtBoard\cmsis\system_stm32l1xx.c 0x00000000   Number         0  system_stm32l1xx.o ABSOLUTE
    src\boards\InES_ExtBoard\gpio-board.c    0x00000000   Number         0  gpio-board.o ABSOLUTE
    src\boards\InES_ExtBoard\i2c-board.c     0x00000000   Number         0  i2c-board.o ABSOLUTE
    src\boards\InES_ExtBoard\rtc-board.c     0x00000000   Number         0  rtc-board.o ABSOLUTE
    src\boards\InES_ExtBoard\spi-board.c     0x00000000   Number         0  spi-board.o ABSOLUTE
    src\boards\InES_ExtBoard\sx1272-board.c  0x00000000   Number         0  sx1272-board.o ABSOLUTE
    src\boards\InES_ExtBoard\timer-board.c   0x00000000   Number         0  timer-board.o ABSOLUTE
    src\boards\InES_ExtBoard\uart-board.c    0x00000000   Number         0  uart-board.o ABSOLUTE
    src\boards\mcu\stm32\STM32L1xx_StdPeriph_Driver\src\misc.c 0x00000000   Number         0  misc.o ABSOLUTE
    src\boards\mcu\stm32\STM32L1xx_StdPeriph_Driver\src\stm32l1xx_adc.c 0x00000000   Number         0  stm32l1xx_adc.o ABSOLUTE
    src\boards\mcu\stm32\STM32L1xx_StdPeriph_Driver\src\stm32l1xx_dbgmcu.c 0x00000000   Number         0  stm32l1xx_dbgmcu.o ABSOLUTE
    src\boards\mcu\stm32\STM32L1xx_StdPeriph_Driver\src\stm32l1xx_dma.c 0x00000000   Number         0  stm32l1xx_dma.o ABSOLUTE
    src\boards\mcu\stm32\STM32L1xx_StdPeriph_Driver\src\stm32l1xx_exti.c 0x00000000   Number         0  stm32l1xx_exti.o ABSOLUTE
    src\boards\mcu\stm32\STM32L1xx_StdPeriph_Driver\src\stm32l1xx_gpio.c 0x00000000   Number         0  stm32l1xx_gpio.o ABSOLUTE
    src\boards\mcu\stm32\STM32L1xx_StdPeriph_Driver\src\stm32l1xx_i2c.c 0x00000000   Number         0  stm32l1xx_i2c.o ABSOLUTE
    src\boards\mcu\stm32\STM32L1xx_StdPeriph_Driver\src\stm32l1xx_pwr.c 0x00000000   Number         0  stm32l1xx_pwr.o ABSOLUTE
    src\boards\mcu\stm32\STM32L1xx_StdPeriph_Driver\src\stm32l1xx_rcc.c 0x00000000   Number         0  stm32l1xx_rcc.o ABSOLUTE
    src\boards\mcu\stm32\STM32L1xx_StdPeriph_Driver\src\stm32l1xx_rtc.c 0x00000000   Number         0  stm32l1xx_rtc.o ABSOLUTE
    src\boards\mcu\stm32\STM32L1xx_StdPeriph_Driver\src\stm32l1xx_spi.c 0x00000000   Number         0  stm32l1xx_spi.o ABSOLUTE
    src\boards\mcu\stm32\STM32L1xx_StdPeriph_Driver\src\stm32l1xx_syscfg.c 0x00000000   Number         0  stm32l1xx_syscfg.o ABSOLUTE
    src\boards\mcu\stm32\STM32L1xx_StdPeriph_Driver\src\stm32l1xx_tim.c 0x00000000   Number         0  stm32l1xx_tim.o ABSOLUTE
    src\boards\mcu\stm32\STM32L1xx_StdPeriph_Driver\src\stm32l1xx_usart.c 0x00000000   Number         0  stm32l1xx_usart.o ABSOLUTE
    src\boards\mcu\stm32\sysIrqHandlers.c    0x00000000   Number         0  sysirqhandlers.o ABSOLUTE
    src\boards\mcu\stm32\utilities.c         0x00000000   Number         0  utilities.o ABSOLUTE
    src\mac\LoRaMac-api-v3.c                 0x00000000   Number         0  loramac-api-v3.o ABSOLUTE
    src\mac\LoRaMac.c                        0x00000000   Number         0  loramac.o ABSOLUTE
    src\mac\LoRaMacCrypto.c                  0x00000000   Number         0  loramaccrypto.o ABSOLUTE
    src\radio\sx1272\sx1272.c                0x00000000   Number         0  sx1272.o ABSOLUTE
    src\system\Retarget.c                    0x00000000   Number         0  retarget.o ABSOLUTE
    src\system\adc.c                         0x00000000   Number         0  adc.o ABSOLUTE
    src\system\crypto\aes.c                  0x00000000   Number         0  aes.o ABSOLUTE
    src\system\crypto\cmac.c                 0x00000000   Number         0  cmac.o ABSOLUTE
    src\system\debug.c                       0x00000000   Number         0  debug.o ABSOLUTE
    src\system\delay.c                       0x00000000   Number         0  delay.o ABSOLUTE
    src\system\fifo.c                        0x00000000   Number         0  fifo.o ABSOLUTE
    src\system\gpio.c                        0x00000000   Number         0  gpio.o ABSOLUTE
    src\system\i2c.c                         0x00000000   Number         0  i2c.o ABSOLUTE
    src\system\timer.c                       0x00000000   Number         0  timer.o ABSOLUTE
    src\system\uart.c                        0x00000000   Number         0  uart.o ABSOLUTE
    RESET                                    0x08000000   Section      244  startup_stm32l1xx_md.o(RESET)
    .ARM.Collect$$$$00000000                 0x080000f4   Section        0  entry.o(.ARM.Collect$$$$00000000)
    .ARM.Collect$$$$00000001                 0x080000f4   Section        4  entry2.o(.ARM.Collect$$$$00000001)
    .ARM.Collect$$$$00000004                 0x080000f8   Section        4  entry5.o(.ARM.Collect$$$$00000004)
    .ARM.Collect$$$$00000008                 0x080000fc   Section        0  entry7b.o(.ARM.Collect$$$$00000008)
    .ARM.Collect$$$$0000000A                 0x080000fc   Section        0  entry8b.o(.ARM.Collect$$$$0000000A)
    .ARM.Collect$$$$0000000B                 0x080000fc   Section        8  entry9a.o(.ARM.Collect$$$$0000000B)
    .ARM.Collect$$$$0000000D                 0x08000104   Section        0  entry10a.o(.ARM.Collect$$$$0000000D)
    .ARM.Collect$$$$0000000F                 0x08000104   Section        0  entry11a.o(.ARM.Collect$$$$0000000F)
    .ARM.Collect$$$$00002712                 0x08000104   Section        4  entry2.o(.ARM.Collect$$$$00002712)
    __lit__00000000                          0x08000104   Data           4  entry2.o(.ARM.Collect$$$$00002712)
    .text                                    0x08000108   Section       36  startup_stm32l1xx_md.o(.text)
    .text                                    0x0800012c   Section        0  ldiv.o(.text)
    .text                                    0x0800018e   Section        0  memseta.o(.text)
    .text                                    0x080001b2   Section        0  fdiv.o(.text)
    .text                                    0x0800022e   Section        0  dadd.o(.text)
    .text                                    0x0800037c   Section        0  dmul.o(.text)
    .text                                    0x08000460   Section        0  ddiv.o(.text)
    .text                                    0x0800053e   Section        0  fflti.o(.text)
    .text                                    0x08000550   Section        0  ffltl.o(.text)
    .text                                    0x0800057c   Section        0  dflti.o(.text)
    .text                                    0x0800059e   Section        0  dfltui.o(.text)
    .text                                    0x080005b8   Section        0  dfltul.o(.text)
    .text                                    0x080005d0   Section        0  dfixi.o(.text)
    .text                                    0x0800060e   Section        0  dfixui.o(.text)
    .text                                    0x08000640   Section        0  dfixul.o(.text)
    .text                                    0x08000670   Section       48  cdcmple.o(.text)
    .text                                    0x080006a0   Section       48  cdrcmple.o(.text)
    .text                                    0x080006d0   Section        0  uldiv.o(.text)
    .text                                    0x08000732   Section        0  llshl.o(.text)
    .text                                    0x08000750   Section        0  llushr.o(.text)
    .text                                    0x08000770   Section        0  llsshr.o(.text)
    .text                                    0x08000794   Section        0  iusefp.o(.text)
    .text                                    0x08000794   Section        0  fepilogue.o(.text)
    .text                                    0x08000802   Section        0  depilogue.o(.text)
    .text                                    0x080008bc   Section        0  drnd.o(.text)
    .text                                    0x08000944   Section       36  init.o(.text)
    .text                                    0x08000968   Section        0  __dczerorl2.o(.text)
    i.ADC_Cmd                                0x080009be   Section        0  stm32l1xx_adc.o(i.ADC_Cmd)
    i.ADC_CommonInit                         0x080009d4   Section        0  stm32l1xx_adc.o(i.ADC_CommonInit)
    i.ADC_DeInit                             0x080009f0   Section        0  stm32l1xx_adc.o(i.ADC_DeInit)
    i.ADC_DelaySelectionConfig               0x08000a10   Section        0  stm32l1xx_adc.o(i.ADC_DelaySelectionConfig)
    i.ADC_GetConversionValue                 0x08000a20   Section        0  stm32l1xx_adc.o(i.ADC_GetConversionValue)
    i.ADC_GetFlagStatus                      0x08000a28   Section        0  stm32l1xx_adc.o(i.ADC_GetFlagStatus)
    i.ADC_Init                               0x08000a3c   Section        0  stm32l1xx_adc.o(i.ADC_Init)
    i.ADC_PowerDownCmd                       0x08000a90   Section        0  stm32l1xx_adc.o(i.ADC_PowerDownCmd)
    i.ADC_RegularChannelConfig               0x08000aa2   Section        0  stm32l1xx_adc.o(i.ADC_RegularChannelConfig)
    i.ADC_SoftwareStartConv                  0x08000bfa   Section        0  stm32l1xx_adc.o(i.ADC_SoftwareStartConv)
    i.ADC_StructInit                         0x08000c04   Section        0  stm32l1xx_adc.o(i.ADC_StructInit)
    i.ADC_TempSensorVrefintCmd               0x08000c20   Section        0  stm32l1xx_adc.o(i.ADC_TempSensorVrefintCmd)
    i.AES_CMAC_Final                         0x08000c44   Section        0  cmac.o(i.AES_CMAC_Final)
    i.AES_CMAC_Init                          0x08000dfe   Section        0  cmac.o(i.AES_CMAC_Init)
    i.AES_CMAC_SetKey                        0x08000e20   Section        0  cmac.o(i.AES_CMAC_SetKey)
    i.AES_CMAC_Update                        0x08000e32   Section        0  cmac.o(i.AES_CMAC_Update)
    i.AdcInit                                0x08000f1c   Section        0  adc.o(i.AdcInit)
    i.AdcMcuFormat                           0x08000f4c   Section        0  adc-board.o(i.AdcMcuFormat)
    i.AdcMcuInit                             0x08001020   Section        0  adc-board.o(i.AdcMcuInit)
    i.AdcMcuRead                             0x08001048   Section        0  adc-board.o(i.AdcMcuRead)
    i.AddMacCommand                          0x080010f8   Section        0  loramac.o(i.AddMacCommand)
    AddMacCommand                            0x080010f9   Thumb Code   310  loramac.o(i.AddMacCommand)
    i.AdrNextDr                              0x0800123c   Section        0  loramac.o(i.AdrNextDr)
    AdrNextDr                                0x0800123d   Thumb Code    92  loramac.o(i.AdrNextDr)
    i.BME280_begin                           0x080012a4   Section        0  bme280.o(i.BME280_begin)
    i.BME280_init                            0x080014f8   Section        0  bme280.o(i.BME280_init)
    i.BME280_readFloatHumidity               0x08001530   Section        0  bme280.o(i.BME280_readFloatHumidity)
    i.BME280_readFloatPressure               0x080015d4   Section        0  bme280.o(i.BME280_readFloatPressure)
    i.BME280_readRegister                    0x080017bc   Section        0  bme280.o(i.BME280_readRegister)
    i.BME280_readTempC                       0x08001804   Section        0  bme280.o(i.BME280_readTempC)
    i.BME280_writeRegister                   0x08001888   Section        0  bme280.o(i.BME280_writeRegister)
    i.BoardDeInitMcu                         0x080018cc   Section        0  board.o(i.BoardDeInitMcu)
    i.BoardGetBatteryLevel                   0x0800193c   Section        0  board.o(i.BoardGetBatteryLevel)
    i.BoardGetRandomSeed                     0x08001990   Section        0  board.o(i.BoardGetRandomSeed)
    i.BoardInitMcu                           0x080019a8   Section        0  board.o(i.BoardInitMcu)
    i.BoardInitPeriph                        0x08001a24   Section        0  board.o(i.BoardInitPeriph)
    i.BoardMeasureVdd                        0x08001a80   Section        0  board.o(i.BoardMeasureVdd)
    i.BoardUnusedIoInit                      0x08001aa0   Section        0  board.o(i.BoardUnusedIoInit)
    BoardUnusedIoInit                        0x08001aa1   Thumb Code    28  board.o(i.BoardUnusedIoInit)
    i.BusFault_Handler                       0x08001abc   Section        0  sysirqhandlers.o(i.BusFault_Handler)
    i.DBGMCU_Config                          0x08001ac0   Section        0  stm32l1xx_dbgmcu.o(i.DBGMCU_Config)
    i.DebugMon_Handler                       0x08001ae0   Section        0  sysirqhandlers.o(i.DebugMon_Handler)
    i.DelayMs                                0x08001ae2   Section        0  delay.o(i.DelayMs)
    i.DisableChannelInMask                   0x08001afc   Section        0  loramac.o(i.DisableChannelInMask)
    DisableChannelInMask                     0x08001afd   Thumb Code    64  loramac.o(i.DisableChannelInMask)
    i.EXTI0_IRQHandler                       0x08001b3c   Section        0  gpio-board.o(i.EXTI0_IRQHandler)
    i.EXTI15_10_IRQHandler                   0x08001b68   Section        0  gpio-board.o(i.EXTI15_10_IRQHandler)
    i.EXTI1_IRQHandler                       0x08001c30   Section        0  gpio-board.o(i.EXTI1_IRQHandler)
    i.EXTI2_IRQHandler                       0x08001c5c   Section        0  gpio-board.o(i.EXTI2_IRQHandler)
    i.EXTI3_IRQHandler                       0x08001c88   Section        0  gpio-board.o(i.EXTI3_IRQHandler)
    i.EXTI4_IRQHandler                       0x08001cb4   Section        0  gpio-board.o(i.EXTI4_IRQHandler)
    i.EXTI9_5_IRQHandler                     0x08001ce0   Section        0  gpio-board.o(i.EXTI9_5_IRQHandler)
    i.EXTI_ClearITPendingBit                 0x08001d7c   Section        0  stm32l1xx_exti.o(i.EXTI_ClearITPendingBit)
    i.EXTI_GetITStatus                       0x08001d88   Section        0  stm32l1xx_exti.o(i.EXTI_GetITStatus)
    i.EXTI_Init                              0x08001da0   Section        0  stm32l1xx_exti.o(i.EXTI_Init)
    i.FifoNext                               0x08001e34   Section        0  fifo.o(i.FifoNext)
    FifoNext                                 0x08001e35   Thumb Code    20  fifo.o(i.FifoNext)
    i.FifoPop                                0x08001e48   Section        0  fifo.o(i.FifoPop)
    i.FifoPush                               0x08001e66   Section        0  fifo.o(i.FifoPush)
    i.GPIO_Init                              0x08001e7e   Section        0  stm32l1xx_gpio.o(i.GPIO_Init)
    i.GPIO_PinAFConfig                       0x08001f0e   Section        0  stm32l1xx_gpio.o(i.GPIO_PinAFConfig)
    i.GPIO_ResetBits                         0x08001f54   Section        0  stm32l1xx_gpio.o(i.GPIO_ResetBits)
    i.GPIO_SetBits                           0x08001f58   Section        0  stm32l1xx_gpio.o(i.GPIO_SetBits)
    i.GetFskBandwidthRegValue                0x08001f5c   Section        0  sx1272.o(i.GetFskBandwidthRegValue)
    GetFskBandwidthRegValue                  0x08001f5d   Thumb Code    50  sx1272.o(i.GetFskBandwidthRegValue)
    i.GpioInit                               0x08001f94   Section        0  gpio.o(i.GpioInit)
    i.GpioMcuInit                            0x08001fc0   Section        0  gpio-board.o(i.GpioMcuInit)
    i.GpioMcuSetInterrupt                    0x0800205c   Section        0  gpio-board.o(i.GpioMcuSetInterrupt)
    i.GpioMcuWrite                           0x08002180   Section        0  gpio-board.o(i.GpioMcuWrite)
    i.GpioSetInterrupt                       0x080021b2   Section        0  gpio.o(i.GpioSetInterrupt)
    i.GpioWrite                              0x080021da   Section        0  gpio.o(i.GpioWrite)
    i.IsFifoEmpty                            0x080021f6   Section        0  fifo.o(i.IsFifoEmpty)
    i.IsFifoFull                             0x08002208   Section        0  fifo.o(i.IsFifoFull)
    i.LimitTxPower                           0x08002222   Section        0  loramac.o(i.LimitTxPower)
    LimitTxPower                             0x08002223   Thumb Code     6  loramac.o(i.LimitTxPower)
    i.LoRaMacChannelAdd                      0x08002228   Section        0  loramac.o(i.LoRaMacChannelAdd)
    i.LoRaMacChannelRemove                   0x080023b0   Section        0  loramac.o(i.LoRaMacChannelRemove)
    i.LoRaMacComputeMic                      0x08002408   Section        0  loramaccrypto.o(i.LoRaMacComputeMic)
    i.LoRaMacInit                            0x0800249c   Section        0  loramac-api-v3.o(i.LoRaMacInit)
    i.LoRaMacInitNwkIds                      0x080024e0   Section        0  loramac-api-v3.o(i.LoRaMacInitNwkIds)
    i.LoRaMacInitialization                  0x08002534   Section        0  loramac.o(i.LoRaMacInitialization)
    i.LoRaMacJoinComputeMic                  0x08002724   Section        0  loramaccrypto.o(i.LoRaMacJoinComputeMic)
    i.LoRaMacJoinComputeSKeys                0x0800277c   Section        0  loramaccrypto.o(i.LoRaMacJoinComputeSKeys)
    i.LoRaMacJoinDecrypt                     0x08002810   Section        0  loramaccrypto.o(i.LoRaMacJoinDecrypt)
    i.LoRaMacLinkCheckReq                    0x08002854   Section        0  loramac-api-v3.o(i.LoRaMacLinkCheckReq)
    i.LoRaMacMcpsRequest                     0x08002880   Section        0  loramac.o(i.LoRaMacMcpsRequest)
    i.LoRaMacMibGetRequestConfirm            0x080029c0   Section        0  loramac.o(i.LoRaMacMibGetRequestConfirm)
    i.LoRaMacMibSetRequestConfirm            0x08002b08   Section        0  loramac.o(i.LoRaMacMibSetRequestConfirm)
    i.LoRaMacMlmeRequest                     0x08002cbc   Section        0  loramac.o(i.LoRaMacMlmeRequest)
    i.LoRaMacPayloadDecrypt                  0x08002db8   Section        0  loramaccrypto.o(i.LoRaMacPayloadDecrypt)
    i.LoRaMacPayloadEncrypt                  0x08002de0   Section        0  loramaccrypto.o(i.LoRaMacPayloadEncrypt)
    i.LoRaMacSendConfirmedFrame              0x08002ec0   Section        0  loramac-api-v3.o(i.LoRaMacSendConfirmedFrame)
    i.LoRaMacSendFrame                       0x08002f48   Section        0  loramac-api-v3.o(i.LoRaMacSendFrame)
    i.LoRaMacSetAdrOn                        0x08002fc4   Section        0  loramac-api-v3.o(i.LoRaMacSetAdrOn)
    i.LoRaMacSetPublicNetwork                0x08002fda   Section        0  loramac-api-v3.o(i.LoRaMacSetPublicNetwork)
    i.LoRaMacTestSetDutyCycleOn              0x08002ff0   Section        0  loramac.o(i.LoRaMacTestSetDutyCycleOn)
    i.McpsConfirm                            0x08002ffc   Section        0  loramac-api-v3.o(i.McpsConfirm)
    McpsConfirm                              0x08002ffd   Thumb Code    74  loramac-api-v3.o(i.McpsConfirm)
    i.McpsIndication                         0x08003058   Section        0  loramac-api-v3.o(i.McpsIndication)
    McpsIndication                           0x08003059   Thumb Code   108  loramac-api-v3.o(i.McpsIndication)
    i.MemManage_Handler                      0x080030d0   Section        0  sysirqhandlers.o(i.MemManage_Handler)
    i.MlmeConfirm                            0x080030d4   Section        0  loramac-api-v3.o(i.MlmeConfirm)
    MlmeConfirm                              0x080030d5   Thumb Code   148  loramac-api-v3.o(i.MlmeConfirm)
    i.NMI_Handler                            0x08003178   Section        0  sysirqhandlers.o(i.NMI_Handler)
    i.NVIC_Init                              0x0800317c   Section        0  misc.o(i.NVIC_Init)
    i.NVIC_PriorityGroupConfig               0x080031f4   Section        0  misc.o(i.NVIC_PriorityGroupConfig)
    i.OnAckTimeoutTimerEvent                 0x08003208   Section        0  loramac.o(i.OnAckTimeoutTimerEvent)
    OnAckTimeoutTimerEvent                   0x08003209   Thumb Code    56  loramac.o(i.OnAckTimeoutTimerEvent)
    i.OnBackupTimerEvent                     0x08003258   Section        0  main.o(i.OnBackupTimerEvent)
    OnBackupTimerEvent                       0x08003259   Thumb Code    10  main.o(i.OnBackupTimerEvent)
    i.OnLed1TimerEvent                       0x08003268   Section        0  main.o(i.OnLed1TimerEvent)
    OnLed1TimerEvent                         0x08003269   Thumb Code    16  main.o(i.OnLed1TimerEvent)
    i.OnMacEvent                             0x08003280   Section        0  main.o(i.OnMacEvent)
    OnMacEvent                               0x08003281   Thumb Code   100  main.o(i.OnMacEvent)
    i.OnMacStateCheckTimerEvent              0x080032f4   Section        0  loramac.o(i.OnMacStateCheckTimerEvent)
    OnMacStateCheckTimerEvent                0x080032f5   Thumb Code   654  loramac.o(i.OnMacStateCheckTimerEvent)
    i.OnRadioRxDone                          0x080035d0   Section        0  loramac.o(i.OnRadioRxDone)
    OnRadioRxDone                            0x080035d1   Thumb Code  1600  loramac.o(i.OnRadioRxDone)
    i.OnRadioRxError                         0x08003c40   Section        0  loramac.o(i.OnRadioRxError)
    OnRadioRxError                           0x08003c41   Thumb Code    66  loramac.o(i.OnRadioRxError)
    i.OnRadioRxTimeout                       0x08003ca0   Section        0  loramac.o(i.OnRadioRxTimeout)
    OnRadioRxTimeout                         0x08003ca1   Thumb Code    66  loramac.o(i.OnRadioRxTimeout)
    i.OnRadioTxDone                          0x08003d00   Section        0  loramac.o(i.OnRadioTxDone)
    OnRadioTxDone                            0x08003d01   Thumb Code   392  loramac.o(i.OnRadioTxDone)
    i.OnRadioTxTimeout                       0x08003ee4   Section        0  loramac.o(i.OnRadioTxTimeout)
    OnRadioTxTimeout                         0x08003ee5   Thumb Code    48  loramac.o(i.OnRadioTxTimeout)
    i.OnRxWindow1TimerEvent                  0x08003f28   Section        0  loramac.o(i.OnRxWindow1TimerEvent)
    OnRxWindow1TimerEvent                    0x08003f29   Thumb Code    90  loramac.o(i.OnRxWindow1TimerEvent)
    i.OnRxWindow2TimerEvent                  0x08003fa4   Section        0  loramac.o(i.OnRxWindow2TimerEvent)
    OnRxWindow2TimerEvent                    0x08003fa5   Thumb Code    94  loramac.o(i.OnRxWindow2TimerEvent)
    i.OnTxDelayedTimerEvent                  0x08004014   Section        0  loramac.o(i.OnTxDelayedTimerEvent)
    OnTxDelayedTimerEvent                    0x08004015   Thumb Code    26  loramac.o(i.OnTxDelayedTimerEvent)
    i.OnTxNextPacketTimerEvent               0x08004038   Section        0  main.o(i.OnTxNextPacketTimerEvent)
    OnTxNextPacketTimerEvent                 0x08004039   Thumb Code    16  main.o(i.OnTxNextPacketTimerEvent)
    i.PWR_EnterSTOPMode                      0x08004050   Section        0  stm32l1xx_pwr.o(i.PWR_EnterSTOPMode)
    i.PWR_FastWakeUpCmd                      0x08004090   Section        0  stm32l1xx_pwr.o(i.PWR_FastWakeUpCmd)
    i.PWR_PVDCmd                             0x0800409c   Section        0  stm32l1xx_pwr.o(i.PWR_PVDCmd)
    i.PWR_RTCAccessCmd                       0x080040a8   Section        0  stm32l1xx_pwr.o(i.PWR_RTCAccessCmd)
    i.PWR_UltraLowPowerCmd                   0x080040b4   Section        0  stm32l1xx_pwr.o(i.PWR_UltraLowPowerCmd)
    i.PrepareFrame                           0x080040c0   Section        0  loramac.o(i.PrepareFrame)
    i.PrepareRxDoneAbort                     0x080044b0   Section        0  loramac.o(i.PrepareRxDoneAbort)
    PrepareRxDoneAbort                       0x080044b1   Thumb Code    86  loramac.o(i.PrepareRxDoneAbort)
    i.PrepareTxFrame                         0x08004520   Section        0  main.o(i.PrepareTxFrame)
    PrepareTxFrame                           0x08004521   Thumb Code   244  main.o(i.PrepareTxFrame)
    i.ProcessMacCommands                     0x08004620   Section        0  loramac.o(i.ProcessMacCommands)
    ProcessMacCommands                       0x08004621   Thumb Code  1000  loramac.o(i.ProcessMacCommands)
    i.ProcessRxFrame                         0x08004a4c   Section        0  main.o(i.ProcessRxFrame)
    ProcessRxFrame                           0x08004a4d   Thumb Code   292  main.o(i.ProcessRxFrame)
    i.RCC_AHBPeriphClockCmd                  0x08004b8c   Section        0  stm32l1xx_rcc.o(i.RCC_AHBPeriphClockCmd)
    i.RCC_APB1PeriphClockCmd                 0x08004bac   Section        0  stm32l1xx_rcc.o(i.RCC_APB1PeriphClockCmd)
    i.RCC_APB1PeriphResetCmd                 0x08004bcc   Section        0  stm32l1xx_rcc.o(i.RCC_APB1PeriphResetCmd)
    i.RCC_APB2PeriphClockCmd                 0x08004bec   Section        0  stm32l1xx_rcc.o(i.RCC_APB2PeriphClockCmd)
    i.RCC_APB2PeriphResetCmd                 0x08004c0c   Section        0  stm32l1xx_rcc.o(i.RCC_APB2PeriphResetCmd)
    i.RCC_GetFlagStatus                      0x08004c2c   Section        0  stm32l1xx_rcc.o(i.RCC_GetFlagStatus)
    i.RCC_GetSYSCLKSource                    0x08004c60   Section        0  stm32l1xx_rcc.o(i.RCC_GetSYSCLKSource)
    i.RCC_HSEConfig                          0x08004c70   Section        0  stm32l1xx_rcc.o(i.RCC_HSEConfig)
    i.RCC_HSICmd                             0x08004c80   Section        0  stm32l1xx_rcc.o(i.RCC_HSICmd)
    i.RCC_LSEConfig                          0x08004c8c   Section        0  stm32l1xx_rcc.o(i.RCC_LSEConfig)
    i.RCC_PLLCmd                             0x08004c9c   Section        0  stm32l1xx_rcc.o(i.RCC_PLLCmd)
    i.RCC_RTCCLKCmd                          0x08004ca8   Section        0  stm32l1xx_rcc.o(i.RCC_RTCCLKCmd)
    i.RCC_RTCCLKConfig                       0x08004cb4   Section        0  stm32l1xx_rcc.o(i.RCC_RTCCLKConfig)
    i.RCC_RTCResetCmd                        0x08004cf8   Section        0  stm32l1xx_rcc.o(i.RCC_RTCResetCmd)
    i.RCC_SYSCLKConfig                       0x08004d04   Section        0  stm32l1xx_rcc.o(i.RCC_SYSCLKConfig)
    i.RTC_AlarmCmd                           0x08004d1c   Section        0  stm32l1xx_rtc.o(i.RTC_AlarmCmd)
    i.RTC_Alarm_IRQHandler                   0x08004d90   Section        0  rtc-board.o(i.RTC_Alarm_IRQHandler)
    i.RTC_Bcd2ToByte                         0x08004db6   Section        0  stm32l1xx_rtc.o(i.RTC_Bcd2ToByte)
    RTC_Bcd2ToByte                           0x08004db7   Thumb Code    22  stm32l1xx_rtc.o(i.RTC_Bcd2ToByte)
    i.RTC_ByteToBcd2                         0x08004dcc   Section        0  stm32l1xx_rtc.o(i.RTC_ByteToBcd2)
    RTC_ByteToBcd2                           0x08004dcd   Thumb Code    28  stm32l1xx_rtc.o(i.RTC_ByteToBcd2)
    i.RTC_ClearFlag                          0x08004de8   Section        0  stm32l1xx_rtc.o(i.RTC_ClearFlag)
    i.RTC_ClearITPendingBit                  0x08004e08   Section        0  stm32l1xx_rtc.o(i.RTC_ClearITPendingBit)
    i.RTC_DateStructInit                     0x08004e28   Section        0  stm32l1xx_rtc.o(i.RTC_DateStructInit)
    i.RTC_EnterInitMode                      0x08004e38   Section        0  stm32l1xx_rtc.o(i.RTC_EnterInitMode)
    i.RTC_ExitInitMode                       0x08004e88   Section        0  stm32l1xx_rtc.o(i.RTC_ExitInitMode)
    i.RTC_GetDate                            0x08004e9c   Section        0  stm32l1xx_rtc.o(i.RTC_GetDate)
    i.RTC_GetITStatus                        0x08004ee8   Section        0  stm32l1xx_rtc.o(i.RTC_GetITStatus)
    i.RTC_GetTime                            0x08004f2c   Section        0  stm32l1xx_rtc.o(i.RTC_GetTime)
    i.RTC_ITConfig                           0x08004f7c   Section        0  stm32l1xx_rtc.o(i.RTC_ITConfig)
    i.RTC_Init                               0x08004fe0   Section        0  stm32l1xx_rtc.o(i.RTC_Init)
    i.RTC_SetAlarm                           0x08005044   Section        0  stm32l1xx_rtc.o(i.RTC_SetAlarm)
    i.RTC_SetDate                            0x08005130   Section        0  stm32l1xx_rtc.o(i.RTC_SetDate)
    i.RTC_SetTime                            0x080051f8   Section        0  stm32l1xx_rtc.o(i.RTC_SetTime)
    i.RTC_TimeStructInit                     0x080052c8   Section        0  stm32l1xx_rtc.o(i.RTC_TimeStructInit)
    i.RTC_WaitForSynchro                     0x080052d4   Section        0  stm32l1xx_rtc.o(i.RTC_WaitForSynchro)
    i.RtcClearStatus                         0x08005334   Section        0  rtc-board.o(i.RtcClearStatus)
    RtcClearStatus                           0x08005335   Thumb Code    32  rtc-board.o(i.RtcClearStatus)
    i.RtcDelayMs                             0x08005354   Section        0  rtc-board.o(i.RtcDelayMs)
    i.RtcEnterLowPowerStopMode               0x08005388   Section        0  rtc-board.o(i.RtcEnterLowPowerStopMode)
    i.RtcGetCalendarValue                    0x080053c4   Section        0  rtc-board.o(i.RtcGetCalendarValue)
    RtcGetCalendarValue                      0x080053c5   Thumb Code   284  rtc-board.o(i.RtcGetCalendarValue)
    i.RtcGetMinimumTimeout                   0x08005500   Section        0  rtc-board.o(i.RtcGetMinimumTimeout)
    i.RtcGetTimerElapsedTime                 0x0800551c   Section        0  rtc-board.o(i.RtcGetTimerElapsedTime)
    i.RtcGetTimerValue                       0x08005570   Section        0  rtc-board.o(i.RtcGetTimerValue)
    i.RtcInit                                0x080055ac   Section        0  rtc-board.o(i.RtcInit)
    i.RtcRecoverMcuStatus                    0x080055c8   Section        0  rtc-board.o(i.RtcRecoverMcuStatus)
    i.RtcSetAlarmConfig                      0x08005630   Section        0  rtc-board.o(i.RtcSetAlarmConfig)
    RtcSetAlarmConfig                        0x08005631   Thumb Code   110  rtc-board.o(i.RtcSetAlarmConfig)
    i.RtcSetConfig                           0x0800569e   Section        0  rtc-board.o(i.RtcSetConfig)
    RtcSetConfig                             0x0800569f   Thumb Code   118  rtc-board.o(i.RtcSetConfig)
    i.RtcSetTimeout                          0x08005714   Section        0  rtc-board.o(i.RtcSetTimeout)
    i.RtcStartWakeUpAlarm                    0x08005778   Section        0  rtc-board.o(i.RtcStartWakeUpAlarm)
    RtcStartWakeUpAlarm                      0x08005779   Thumb Code   540  rtc-board.o(i.RtcStartWakeUpAlarm)
    i.RxWindowSetup                          0x080059b0   Section        0  loramac.o(i.RxWindowSetup)
    RxWindowSetup                            0x080059b1   Thumb Code   226  loramac.o(i.RxWindowSetup)
    i.SPI_Cmd                                0x08005ab8   Section        0  stm32l1xx_spi.o(i.SPI_Cmd)
    i.SPI_I2S_DeInit                         0x08005ad0   Section        0  stm32l1xx_spi.o(i.SPI_I2S_DeInit)
    i.SPI_I2S_GetFlagStatus                  0x08005b28   Section        0  stm32l1xx_spi.o(i.SPI_I2S_GetFlagStatus)
    i.SPI_I2S_ReceiveData                    0x08005b3a   Section        0  stm32l1xx_spi.o(i.SPI_I2S_ReceiveData)
    i.SPI_I2S_SendData                       0x08005b40   Section        0  stm32l1xx_spi.o(i.SPI_I2S_SendData)
    i.SPI_Init                               0x08005b44   Section        0  stm32l1xx_spi.o(i.SPI_Init)
    i.SX1272AntSwDeInit                      0x08005b80   Section        0  sx1272-board.o(i.SX1272AntSwDeInit)
    i.SX1272AntSwInit                        0x08005bb0   Section        0  sx1272-board.o(i.SX1272AntSwInit)
    i.SX1272CheckRfFrequency                 0x08005be4   Section        0  sx1272-board.o(i.SX1272CheckRfFrequency)
    i.SX1272GetPaSelect                      0x08005bea   Section        0  sx1272-board.o(i.SX1272GetPaSelect)
    i.SX1272GetStatus                        0x08005bf0   Section        0  sx1272.o(i.SX1272GetStatus)
    i.SX1272GetTimeOnAir                     0x08005bfc   Section        0  sx1272.o(i.SX1272GetTimeOnAir)
    i.SX1272Init                             0x08005e98   Section        0  sx1272.o(i.SX1272Init)
    i.SX1272IoDeInit                         0x08005f28   Section        0  sx1272-board.o(i.SX1272IoDeInit)
    i.SX1272IoInit                           0x08005fbc   Section        0  sx1272-board.o(i.SX1272IoInit)
    i.SX1272IoIrqInit                        0x0800605c   Section        0  sx1272-board.o(i.SX1272IoIrqInit)
    i.SX1272IsChannelFree                    0x080060b8   Section        0  sx1272.o(i.SX1272IsChannelFree)
    i.SX1272OnDio0Irq                        0x080060f8   Section        0  sx1272.o(i.SX1272OnDio0Irq)
    i.SX1272OnDio1Irq                        0x08006430   Section        0  sx1272.o(i.SX1272OnDio1Irq)
    i.SX1272OnDio2Irq                        0x080065d0   Section        0  sx1272.o(i.SX1272OnDio2Irq)
    i.SX1272OnDio3Irq                        0x08006718   Section        0  sx1272.o(i.SX1272OnDio3Irq)
    i.SX1272OnDio4Irq                        0x08006788   Section        0  sx1272.o(i.SX1272OnDio4Irq)
    i.SX1272OnTimeoutIrq                     0x080067b4   Section        0  sx1272.o(i.SX1272OnTimeoutIrq)
    i.SX1272Random                           0x08006868   Section        0  sx1272.o(i.SX1272Random)
    i.SX1272Read                             0x080068a8   Section        0  sx1272.o(i.SX1272Read)
    i.SX1272ReadBuffer                       0x080068bc   Section        0  sx1272.o(i.SX1272ReadBuffer)
    i.SX1272ReadFifo                         0x08006904   Section        0  sx1272.o(i.SX1272ReadFifo)
    i.SX1272ReadRssi                         0x08006916   Section        0  sx1272.o(i.SX1272ReadRssi)
    i.SX1272Reset                            0x08006948   Section        0  sx1272.o(i.SX1272Reset)
    i.SX1272Send                             0x08006984   Section        0  sx1272.o(i.SX1272Send)
    i.SX1272SetAntSw                         0x08006aa8   Section        0  sx1272-board.o(i.SX1272SetAntSw)
    i.SX1272SetAntSwLowPower                 0x08006af4   Section        0  sx1272-board.o(i.SX1272SetAntSwLowPower)
    i.SX1272SetChannel                       0x08006b18   Section        0  sx1272.o(i.SX1272SetChannel)
    i.SX1272SetMaxPayloadLength              0x08006b64   Section        0  sx1272.o(i.SX1272SetMaxPayloadLength)
    i.SX1272SetModem                         0x08006b9c   Section        0  sx1272.o(i.SX1272SetModem)
    i.SX1272SetOpMode                        0x08006c2c   Section        0  sx1272.o(i.SX1272SetOpMode)
    i.SX1272SetRx                            0x08006c7c   Section        0  sx1272.o(i.SX1272SetRx)
    i.SX1272SetRxConfig                      0x08006e90   Section        0  sx1272.o(i.SX1272SetRxConfig)
    i.SX1272SetSleep                         0x080070d0   Section        0  sx1272.o(i.SX1272SetSleep)
    i.SX1272SetStby                          0x080070fc   Section        0  sx1272.o(i.SX1272SetStby)
    i.SX1272SetTx                            0x08007128   Section        0  sx1272.o(i.SX1272SetTx)
    i.SX1272SetTxConfig                      0x080071e4   Section        0  sx1272.o(i.SX1272SetTxConfig)
    i.SX1272StartCad                         0x080074cc   Section        0  sx1272.o(i.SX1272StartCad)
    i.SX1272Write                            0x08007514   Section        0  sx1272.o(i.SX1272Write)
    i.SX1272WriteBuffer                      0x08007524   Section        0  sx1272.o(i.SX1272WriteBuffer)
    i.SX1272WriteFifo                        0x08007568   Section        0  sx1272.o(i.SX1272WriteFifo)
    i.SYSCFG_EXTILineConfig                  0x0800757c   Section        0  stm32l1xx_syscfg.o(i.SYSCFG_EXTILineConfig)
    i.ScheduleTx                             0x080075bc   Section        0  loramac.o(i.ScheduleTx)
    ScheduleTx                               0x080075bd   Thumb Code   132  loramac.o(i.ScheduleTx)
    i.Send                                   0x08007664   Section        0  loramac.o(i.Send)
    i.SendFrame                              0x080076e8   Section        0  main.o(i.SendFrame)
    SendFrame                                0x080076e9   Thumb Code    78  main.o(i.SendFrame)
    i.SendFrameOnChannel                     0x08007748   Section        0  loramac.o(i.SendFrameOnChannel)
    i.SetNextChannel                         0x0800791c   Section        0  loramac.o(i.SetNextChannel)
    SetNextChannel                           0x0800791d   Thumb Code   698  loramac.o(i.SetNextChannel)
    i.SetPublicNetwork                       0x08007bf8   Section        0  loramac.o(i.SetPublicNetwork)
    SetPublicNetwork                         0x08007bf9   Thumb Code    48  loramac.o(i.SetPublicNetwork)
    i.SetSysClock                            0x08007c30   Section        0  system_stm32l1xx.o(i.SetSysClock)
    SetSysClock                              0x08007c31   Thumb Code   258  system_stm32l1xx.o(i.SetSysClock)
    i.Spi2Init                               0x08007d40   Section        0  spi-board.o(i.Spi2Init)
    i.SpiDeInit                              0x08007e3c   Section        0  spi-board.o(i.SpiDeInit)
    i.SpiFormat                              0x08007ea8   Section        0  spi-board.o(i.SpiFormat)
    i.SpiFrequency                           0x08007f48   Section        0  spi-board.o(i.SpiFrequency)
    i.SpiInOut                               0x08007fc0   Section        0  spi-board.o(i.SpiInOut)
    i.SpiInit                                0x08007ffc   Section        0  spi-board.o(i.SpiInit)
    i.SystemInit                             0x080080f8   Section        0  system_stm32l1xx.o(i.SystemInit)
    i.TIM2_IRQHandler                        0x08008160   Section        0  timer-board.o(i.TIM2_IRQHandler)
    i.TIM3_IRQHandler                        0x0800819c   Section        0  timer-board.o(i.TIM3_IRQHandler)
    i.TIM_ClearITPendingBit                  0x080081bc   Section        0  stm32l1xx_tim.o(i.TIM_ClearITPendingBit)
    i.TIM_Cmd                                0x080081c2   Section        0  stm32l1xx_tim.o(i.TIM_Cmd)
    i.TIM_GetITStatus                        0x080081da   Section        0  stm32l1xx_tim.o(i.TIM_GetITStatus)
    i.TIM_ITConfig                           0x080081fc   Section        0  stm32l1xx_tim.o(i.TIM_ITConfig)
    i.TIM_TimeBaseInit                       0x08008210   Section        0  stm32l1xx_tim.o(i.TIM_TimeBaseInit)
    i.TimerExists                            0x08008270   Section        0  timer.o(i.TimerExists)
    TimerExists                              0x08008271   Thumb Code    26  timer.o(i.TimerExists)
    i.TimerGetCurrentTime                    0x08008290   Section        0  timer.o(i.TimerGetCurrentTime)
    i.TimerGetLowPowerEnable                 0x080082ac   Section        0  timer.o(i.TimerGetLowPowerEnable)
    i.TimerGetValue                          0x080082b8   Section        0  timer.o(i.TimerGetValue)
    i.TimerHwDelayMs                         0x080082d4   Section        0  timer-board.o(i.TimerHwDelayMs)
    i.TimerHwEnterLowPowerStopMode           0x0800831c   Section        0  timer-board.o(i.TimerHwEnterLowPowerStopMode)
    i.TimerHwGetDelayValue                   0x08008320   Section        0  timer-board.o(i.TimerHwGetDelayValue)
    i.TimerHwGetElapsedTime                  0x08008330   Section        0  timer-board.o(i.TimerHwGetElapsedTime)
    i.TimerHwGetMinimumTimeout               0x08008360   Section        0  timer-board.o(i.TimerHwGetMinimumTimeout)
    i.TimerHwGetTime                         0x08008378   Section        0  timer-board.o(i.TimerHwGetTime)
    i.TimerHwGetTimerValue                   0x08008394   Section        0  timer-board.o(i.TimerHwGetTimerValue)
    i.TimerHwInit                            0x080083ac   Section        0  timer-board.o(i.TimerHwInit)
    i.TimerHwStart                           0x08008478   Section        0  timer-board.o(i.TimerHwStart)
    i.TimerIncrementDelayCounter             0x080084c0   Section        0  timer-board.o(i.TimerIncrementDelayCounter)
    i.TimerIncrementTickCounter              0x080084d4   Section        0  timer-board.o(i.TimerIncrementTickCounter)
    i.TimerInit                              0x080084f0   Section        0  timer.o(i.TimerInit)
    i.TimerInsertNewHeadTimer                0x08008500   Section        0  timer.o(i.TimerInsertNewHeadTimer)
    TimerInsertNewHeadTimer                  0x08008501   Thumb Code    40  timer.o(i.TimerInsertNewHeadTimer)
    i.TimerInsertTimer                       0x0800852c   Section        0  timer.o(i.TimerInsertTimer)
    TimerInsertTimer                         0x0800852d   Thumb Code   104  timer.o(i.TimerInsertTimer)
    i.TimerIrqHandler                        0x08008598   Section        0  timer.o(i.TimerIrqHandler)
    i.TimerLowPowerHandler                   0x0800863c   Section        0  timer.o(i.TimerLowPowerHandler)
    i.TimerReset                             0x08008688   Section        0  timer.o(i.TimerReset)
    i.TimerSetLowPowerEnable                 0x0800869c   Section        0  timer.o(i.TimerSetLowPowerEnable)
    i.TimerSetTimeout                        0x080086a8   Section        0  timer.o(i.TimerSetTimeout)
    TimerSetTimeout                          0x080086a9   Thumb Code    34  timer.o(i.TimerSetTimeout)
    i.TimerSetValue                          0x080086d4   Section        0  timer.o(i.TimerSetValue)
    i.TimerStart                             0x08008708   Section        0  timer.o(i.TimerStart)
    i.TimerStop                              0x0800878c   Section        0  timer.o(i.TimerStop)
    i.USART1_IRQHandler                      0x08008870   Section        0  uart-board.o(i.USART1_IRQHandler)
    i.USART_GetITStatus                      0x0800890c   Section        0  stm32l1xx_usart.o(i.USART_GetITStatus)
    i.USART_ITConfig                         0x08008960   Section        0  stm32l1xx_usart.o(i.USART_ITConfig)
    i.USART_ReceiveData                      0x080089aa   Section        0  stm32l1xx_usart.o(i.USART_ReceiveData)
    i.USART_SendData                         0x080089b4   Section        0  stm32l1xx_usart.o(i.USART_SendData)
    i.UsageFault_Handler                     0x080089bc   Section        0  sysirqhandlers.o(i.UsageFault_Handler)
    i.ValidatePayloadLength                  0x080089c0   Section        0  loramac.o(i.ValidatePayloadLength)
    ValidatePayloadLength                    0x080089c1   Thumb Code    44  loramac.o(i.ValidatePayloadLength)
    i.ValueInRange                           0x080089f8   Section        0  loramac.o(i.ValueInRange)
    ValueInRange                             0x080089f9   Thumb Code    18  loramac.o(i.ValueInRange)
    i.__scatterload_copy                     0x08008a0a   Section       14  handlers.o(i.__scatterload_copy)
    i.__scatterload_null                     0x08008a18   Section        2  handlers.o(i.__scatterload_null)
    i.__scatterload_zeroinit                 0x08008a1a   Section       14  handlers.o(i.__scatterload_zeroinit)
    i.add_round_key                          0x08008a28   Section        0  aes.o(i.add_round_key)
    add_round_key                            0x08008a29   Thumb Code    16  aes.o(i.add_round_key)
    i.aes_encrypt                            0x08008a38   Section        0  aes.o(i.aes_encrypt)
    i.aes_set_key                            0x08008a94   Section        0  aes.o(i.aes_set_key)
    i.ceil                                   0x08008bd0   Section        0  ceil.o(i.ceil)
    i.copy_and_key                           0x08008cac   Section        0  aes.o(i.copy_and_key)
    copy_and_key                             0x08008cad   Thumb Code    36  aes.o(i.copy_and_key)
    i.copy_block                             0x08008cd0   Section        0  aes.o(i.copy_block)
    copy_block                               0x08008cd1   Thumb Code    18  aes.o(i.copy_block)
    i.copy_block_nn                          0x08008ce2   Section        0  aes.o(i.copy_block_nn)
    copy_block_nn                            0x08008ce3   Thumb Code    24  aes.o(i.copy_block_nn)
    i.floor                                  0x08008cfc   Section        0  floor.o(i.floor)
    i.main                                   0x08008dd8   Section        0  main.o(i.main)
    i.memcpy1                                0x08008f70   Section        0  utilities.o(i.memcpy1)
    i.memcpyr                                0x08008f88   Section        0  utilities.o(i.memcpyr)
    i.memset1                                0x08008fa4   Section        0  utilities.o(i.memset1)
    i.mix_sub_columns                        0x08008fb8   Section        0  aes.o(i.mix_sub_columns)
    mix_sub_columns                          0x08008fb9   Thumb Code   630  aes.o(i.mix_sub_columns)
    i.rand1                                  0x0800923c   Section        0  utilities.o(i.rand1)
    i.randr                                  0x08009264   Section        0  utilities.o(i.randr)
    i.round                                  0x08009280   Section        0  round.o(i.round)
    i.shift_sub_rows                         0x08009314   Section        0  aes.o(i.shift_sub_rows)
    shift_sub_rows                           0x08009315   Thumb Code   108  aes.o(i.shift_sub_rows)
    i.srand1                                 0x08009384   Section        0  utilities.o(i.srand1)
    i.xor_block                              0x08009390   Section        0  aes.o(i.xor_block)
    xor_block                                0x08009391   Thumb Code    34  aes.o(i.xor_block)
    .constdata                               0x080093b2   Section       24  rtc-board.o(.constdata)
    DaysInMonth                              0x080093b2   Data          12  rtc-board.o(.constdata)
    DaysInMonthLeapYear                      0x080093be   Data          12  rtc-board.o(.constdata)
    .constdata                               0x080093cc   Section       84  sx1272-board.o(.constdata)
    .constdata                               0x08009420   Section       30  loramac.o(.constdata)
    .constdata                               0x08009440   Section      224  sx1272.o(.constdata)
    .constdata                               0x08009520   Section      768  aes.o(.constdata)
    sbox                                     0x08009520   Data         256  aes.o(.constdata)
    gfm2_sbox                                0x08009620   Data         256  aes.o(.constdata)
    gfm3_sbox                                0x08009720   Data         256  aes.o(.constdata)
    .data                                    0x20000000   Section       41  main.o(.data)
    AppSKey                                  0x20000000   Data          16  main.o(.data)
    DevAddr                                  0x20000010   Data           4  main.o(.data)
    IsNetworkJoined                          0x20000014   Data           1  main.o(.data)
    AppPort                                  0x20000015   Data           1  main.o(.data)
    AppDataSize                              0x20000016   Data           1  main.o(.data)
    IsTxConfirmed                            0x20000017   Data           1  main.o(.data)
    TxDutyCycleTime                          0x20000018   Data           4  main.o(.data)
    TxNextPacket                             0x2000001c   Data           1  main.o(.data)
    ScheduleNextTx                           0x2000001d   Data           1  main.o(.data)
    DownlinkStatusUpdate                     0x2000001e   Data           1  main.o(.data)
    LoRaMacCallbacks                         0x20000020   Data           8  main.o(.data)
    .data                                    0x20000029   Section        1  board.o(.data)
    McuInitialized                           0x20000029   Data           1  board.o(.data)
    .data                                    0x20000030   Section       18  rtc-board.o(.data)
    RtcInitalized                            0x20000030   Data           1  rtc-board.o(.data)
    RtcTimerEventAllowsLowPower              0x20000031   Data           1  rtc-board.o(.data)
    LowPowerDisableDuringTask                0x20000032   Data           1  rtc-board.o(.data)
    RtcTimerContext                          0x20000038   Data           8  rtc-board.o(.data)
    PreviousYear                             0x20000040   Data           1  rtc-board.o(.data)
    Century                                  0x20000041   Data           1  rtc-board.o(.data)
    .data                                    0x20000042   Section        1  sx1272-board.o(.data)
    RadioIsActive                            0x20000042   Data           1  sx1272-board.o(.data)
    .data                                    0x20000048   Section       28  timer-board.o(.data)
    TimerTickCounterContext                  0x20000050   Data           8  timer-board.o(.data)
    .data                                    0x20000064   Section        4  bme280.o(.data)
    .data                                    0x20000068   Section       29  system_stm32l1xx.o(.data)
    .data                                    0x20000088   Section        4  utilities.o(.data)
    next                                     0x20000088   Data           4  utilities.o(.data)
    .data                                    0x20000090   Section      402  loramac.o(.data)
    LoRaMacDevEui                            0x20000090   Data           4  loramac.o(.data)
    LoRaMacAppEui                            0x20000094   Data           4  loramac.o(.data)
    LoRaMacAppKey                            0x20000098   Data           4  loramac.o(.data)
    LoRaMacDevNonce                          0x2000009c   Data           2  loramac.o(.data)
    LoRaMacNetID                             0x200000a0   Data           4  loramac.o(.data)
    LoRaMacDevAddr                           0x200000a4   Data           4  loramac.o(.data)
    MulticastChannels                        0x200000a8   Data           4  loramac.o(.data)
    LoRaMacDeviceClass                       0x200000ac   Data           1  loramac.o(.data)
    PublicNetwork                            0x200000ad   Data           1  loramac.o(.data)
    RepeaterSupport                          0x200000ae   Data           1  loramac.o(.data)
    LoRaMacBufferPktLen                      0x200000b0   Data           2  loramac.o(.data)
    UpLinkCounter                            0x200000b4   Data           4  loramac.o(.data)
    DownLinkCounter                          0x200000b8   Data           4  loramac.o(.data)
    IsUpLinkCounterFixed                     0x200000bc   Data           1  loramac.o(.data)
    IsRxWindowsEnabled                       0x200000bd   Data           1  loramac.o(.data)
    IsLoRaMacNetworkJoined                   0x200000be   Data           1  loramac.o(.data)
    AdrCtrlOn                                0x200000bf   Data           1  loramac.o(.data)
    AdrAckCounter                            0x200000c0   Data           4  loramac.o(.data)
    NodeAckRequested                         0x200000c4   Data           1  loramac.o(.data)
    SrvAckRequested                          0x200000c5   Data           1  loramac.o(.data)
    MacCommandsInNextTx                      0x200000c6   Data           1  loramac.o(.data)
    MacCommandsBufferIndex                   0x200000c7   Data           1  loramac.o(.data)
    Bands                                    0x200000c8   Data         120  loramac.o(.data)
    Channels                                 0x20000140   Data         128  loramac.o(.data)
    Rx2Channel                               0x200001c0   Data           8  loramac.o(.data)
    Rx1DrOffset                              0x200001c8   Data           1  loramac.o(.data)
    ChannelsTxPower                          0x200001c9   Data           1  loramac.o(.data)
    ChannelsDatarate                         0x200001ca   Data           1  loramac.o(.data)
    ChannelsDefaultDatarate                  0x200001cb   Data           1  loramac.o(.data)
    ChannelsNbRep                            0x200001cc   Data           1  loramac.o(.data)
    ChannelsNbRepCounter                     0x200001cd   Data           1  loramac.o(.data)
    MaxDCycle                                0x200001ce   Data           1  loramac.o(.data)
    AggregatedDCycle                         0x200001d0   Data           2  loramac.o(.data)
    AggregatedLastTxDoneTime                 0x200001d8   Data           8  loramac.o(.data)
    AggregatedTimeOff                        0x200001e0   Data           8  loramac.o(.data)
    DutyCycleOn                              0x200001e8   Data           1  loramac.o(.data)
    Channel                                  0x200001e9   Data           1  loramac.o(.data)
    LoRaMacPrimitives                        0x200001f0   Data           4  loramac.o(.data)
    LoRaMacCallbacks                         0x200001f4   Data           4  loramac.o(.data)
    ReceiveDelay1                            0x200001f8   Data           4  loramac.o(.data)
    ReceiveDelay2                            0x200001fc   Data           4  loramac.o(.data)
    JoinAcceptDelay1                         0x20000200   Data           4  loramac.o(.data)
    JoinAcceptDelay2                         0x20000204   Data           4  loramac.o(.data)
    RxWindow1Delay                           0x20000208   Data           4  loramac.o(.data)
    RxWindow2Delay                           0x2000020c   Data           4  loramac.o(.data)
    MaxRxWindow                              0x20000210   Data           4  loramac.o(.data)
    AckTimeoutRetries                        0x20000214   Data           1  loramac.o(.data)
    AckTimeoutRetriesCounter                 0x20000215   Data           1  loramac.o(.data)
    AckTimeoutRetry                          0x20000216   Data           1  loramac.o(.data)
    RxSlot                                   0x20000220   Data           1  loramac.o(.data)
    .data                                    0x20000224   Section       16  loramac-api-v3.o(.data)
    LoRaMacEventFlags                        0x20000224   Data           1  loramac-api-v3.o(.data)
    LoRaMacCallback                          0x20000228   Data           4  loramac-api-v3.o(.data)
    LoRaMacCallbacks                         0x2000022c   Data           8  loramac-api-v3.o(.data)
    .data                                    0x20000234   Section       32  loramaccrypto.o(.data)
    MicBlockB0                               0x20000234   Data          16  loramaccrypto.o(.data)
    aBlock                                   0x20000244   Data          16  loramaccrypto.o(.data)
    .data                                    0x20000254   Section       29  sx1272.o(.data)
    RadioEvents                              0x20000254   Data           4  sx1272.o(.data)
    opModePrev                               0x20000270   Data           1  sx1272.o(.data)
    .data                                    0x20000271   Section        1  adc.o(.data)
    AdcInitialized                           0x20000271   Data           1  adc.o(.data)
    .data                                    0x20000274   Section        8  timer.o(.data)
    LowPowerModeEnable                       0x20000274   Data           1  timer.o(.data)
    TimerListHead                            0x20000278   Data           4  timer.o(.data)
    .bss                                     0x2000027c   Section      160  main.o(.bss)
    NwkSKey                                  0x2000027c   Data          16  main.o(.bss)
    AppData                                  0x2000028c   Data          64  main.o(.bss)
    TxNextPacketTimer                        0x200002cc   Data          20  main.o(.bss)
    Led1Timer                                0x200002e0   Data          20  main.o(.bss)
    BackupTimer                              0x200002f4   Data          20  main.o(.bss)
    .bss                                     0x2000031c   Section       92  board.o(.bss)
    .bss                                     0x20000378   Section       64  gpio-board.o(.bss)
    GpioIrq                                  0x20000378   Data          64  gpio-board.o(.bss)
    .bss                                     0x200003b8   Section       18  spi-board.o(.bss)
    .bss                                     0x200003cc   Section       24  sx1272-board.o(.bss)
    .bss                                     0x200003e4   Section      132  bme280.o(.bss)
    .bss                                     0x20000468   Section     1024  loramac.o(.bss)
    LoRaMacNwkSKey                           0x20000468   Data          16  loramac.o(.bss)
    LoRaMacAppSKey                           0x20000478   Data          16  loramac.o(.bss)
    LoRaMacBuffer                            0x20000488   Data         255  loramac.o(.bss)
    LoRaMacPayload                           0x20000587   Data         255  loramac.o(.bss)
    LoRaMacRxPayload                         0x20000686   Data         255  loramac.o(.bss)
    MacCommandsBuffer                        0x20000785   Data          15  loramac.o(.bss)
    ChannelsMask                             0x20000794   Data          12  loramac.o(.bss)
    MacStateCheckTimer                       0x200007a0   Data          20  loramac.o(.bss)
    RadioEvents                              0x200007b4   Data          28  loramac.o(.bss)
    TxDelayedTimer                           0x200007d0   Data          20  loramac.o(.bss)
    RxWindowTimer1                           0x200007e4   Data          20  loramac.o(.bss)
    RxWindowTimer2                           0x200007f8   Data          20  loramac.o(.bss)
    AckTimeoutTimer                          0x2000080c   Data          20  loramac.o(.bss)
    McpsIndication                           0x20000820   Data          24  loramac.o(.bss)
    McpsConfirm                              0x20000838   Data          24  loramac.o(.bss)
    MlmeConfirm                              0x20000850   Data          24  loramac.o(.bss)
    .bss                                     0x20000868   Section       36  loramac-api-v3.o(.bss)
    LoRaMacEventInfo                         0x20000868   Data          24  loramac-api-v3.o(.bss)
    LoRaMacPrimitives                        0x20000880   Data          12  loramac-api-v3.o(.bss)
    .bss                                     0x2000088c   Section      556  loramaccrypto.o(.bss)
    Mic                                      0x2000088c   Data          16  loramaccrypto.o(.bss)
    sBlock                                   0x2000089c   Data          16  loramaccrypto.o(.bss)
    AesContext                               0x200008ac   Data         241  loramaccrypto.o(.bss)
    AesCmacCtx                               0x200009a0   Data         280  loramaccrypto.o(.bss)
    .bss                                     0x20000ab8   Section      548  sx1272.o(.bss)
    RxBuffer                                 0x20000ab8   Data         256  sx1272.o(.bss)
    .bss                                     0x20000cdc   Section       84  debug.o(.bss)
    STACK                                    0x20000d30   Section     1024  startup_stm32l1xx_md.o(STACK)

    Global Symbols

    Symbol Name                              Value     Ov Type        Size  Object(Section)

    BuildAttributes$$THM_ISAv4$P$D$K$B$S$PE$A:L22UL41UL21$X:L11$S22US41US21$IEEE1$IW$USESV6$~STKCKD$USESV7$~SHL$OTIME$ROPI$IEEEX$EBA8$MICROLIB$REQ8$PRES8$EABIv2 0x00000000   Number         0  anon$$obj.o ABSOLUTE
    __ARM_use_no_argv                        0x00000000   Number         0  main.o ABSOLUTE
    __use_no_errno                           0x00000000   Number         0  useno.o ABSOLUTE
    __use_no_exception_handling              0x00000000   Number         0  useno.o ABSOLUTE
    __use_no_fp                              0x00000000   Number         0  useno.o ABSOLUTE
    __use_no_heap                            0x00000000   Number         0  useno.o ABSOLUTE
    __use_no_heap_region                     0x00000000   Number         0  useno.o ABSOLUTE
    __use_no_semihosting                     0x00000000   Number         0  useno.o ABSOLUTE
    __use_no_semihosting_swi                 0x00000000   Number         0  useno.o ABSOLUTE
    __use_no_signal_handling                 0x00000000   Number         0  useno.o ABSOLUTE
    __cpp_initialize__aeabi_                  - Undefined Weak Reference
    __cxa_finalize                            - Undefined Weak Reference
    _clock_init                               - Undefined Weak Reference
    _microlib_exit                            - Undefined Weak Reference
    __Vectors_Size                           0x000000f4   Number         0  startup_stm32l1xx_md.o ABSOLUTE
    __Vectors                                0x08000000   Data           4  startup_stm32l1xx_md.o(RESET)
    __Vectors_End                            0x080000f4   Data           0  startup_stm32l1xx_md.o(RESET)
    __main                                   0x080000f5   Thumb Code     0  entry.o(.ARM.Collect$$$$00000000)
    _main_stk                                0x080000f5   Thumb Code     0  entry2.o(.ARM.Collect$$$$00000001)
    _main_scatterload                        0x080000f9   Thumb Code     0  entry5.o(.ARM.Collect$$$$00000004)
    __main_after_scatterload                 0x080000fd   Thumb Code     0  entry5.o(.ARM.Collect$$$$00000004)
    _main_clock                              0x080000fd   Thumb Code     0  entry7b.o(.ARM.Collect$$$$00000008)
    _main_cpp_init                           0x080000fd   Thumb Code     0  entry8b.o(.ARM.Collect$$$$0000000A)
    _main_init                               0x080000fd   Thumb Code     0  entry9a.o(.ARM.Collect$$$$0000000B)
    __rt_final_cpp                           0x08000105   Thumb Code     0  entry10a.o(.ARM.Collect$$$$0000000D)
    __rt_final_exit                          0x08000105   Thumb Code     0  entry11a.o(.ARM.Collect$$$$0000000F)
    Reset_Handler                            0x08000109   Thumb Code     8  startup_stm32l1xx_md.o(.text)
    HardFault_Handler                        0x08000113   Thumb Code     2  startup_stm32l1xx_md.o(.text)
    SVC_Handler                              0x0800011b   Thumb Code     2  startup_stm32l1xx_md.o(.text)
    PendSV_Handler                           0x0800011f   Thumb Code     2  startup_stm32l1xx_md.o(.text)
    SysTick_Handler                          0x08000121   Thumb Code     2  startup_stm32l1xx_md.o(.text)
    ADC1_IRQHandler                          0x08000123   Thumb Code     0  startup_stm32l1xx_md.o(.text)
    COMP_IRQHandler                          0x08000123   Thumb Code     0  startup_stm32l1xx_md.o(.text)
    DAC_IRQHandler                           0x08000123   Thumb Code     0  startup_stm32l1xx_md.o(.text)
    DMA1_Channel1_IRQHandler                 0x08000123   Thumb Code     0  startup_stm32l1xx_md.o(.text)
    DMA1_Channel2_IRQHandler                 0x08000123   Thumb Code     0  startup_stm32l1xx_md.o(.text)
    DMA1_Channel3_IRQHandler                 0x08000123   Thumb Code     0  startup_stm32l1xx_md.o(.text)
    DMA1_Channel4_IRQHandler                 0x08000123   Thumb Code     0  startup_stm32l1xx_md.o(.text)
    DMA1_Channel5_IRQHandler                 0x08000123   Thumb Code     0  startup_stm32l1xx_md.o(.text)
    DMA1_Channel6_IRQHandler                 0x08000123   Thumb Code     0  startup_stm32l1xx_md.o(.text)
    DMA1_Channel7_IRQHandler                 0x08000123   Thumb Code     0  startup_stm32l1xx_md.o(.text)
    FLASH_IRQHandler                         0x08000123   Thumb Code     0  startup_stm32l1xx_md.o(.text)
    I2C1_ER_IRQHandler                       0x08000123   Thumb Code     0  startup_stm32l1xx_md.o(.text)
    I2C1_EV_IRQHandler                       0x08000123   Thumb Code     0  startup_stm32l1xx_md.o(.text)
    I2C2_ER_IRQHandler                       0x08000123   Thumb Code     0  startup_stm32l1xx_md.o(.text)
    I2C2_EV_IRQHandler                       0x08000123   Thumb Code     0  startup_stm32l1xx_md.o(.text)
    LCD_IRQHandler                           0x08000123   Thumb Code     0  startup_stm32l1xx_md.o(.text)
    PVD_IRQHandler                           0x08000123   Thumb Code     0  startup_stm32l1xx_md.o(.text)
    RCC_IRQHandler                           0x08000123   Thumb Code     0  startup_stm32l1xx_md.o(.text)
    RTC_WKUP_IRQHandler                      0x08000123   Thumb Code     0  startup_stm32l1xx_md.o(.text)
    SPI1_IRQHandler                          0x08000123   Thumb Code     0  startup_stm32l1xx_md.o(.text)
    SPI2_IRQHandler                          0x08000123   Thumb Code     0  startup_stm32l1xx_md.o(.text)
    TAMPER_STAMP_IRQHandler                  0x08000123   Thumb Code     0  startup_stm32l1xx_md.o(.text)
    TIM10_IRQHandler                         0x08000123   Thumb Code     0  startup_stm32l1xx_md.o(.text)
    TIM11_IRQHandler                         0x08000123   Thumb Code     0  startup_stm32l1xx_md.o(.text)
    TIM4_IRQHandler                          0x08000123   Thumb Code     0  startup_stm32l1xx_md.o(.text)
    TIM6_IRQHandler                          0x08000123   Thumb Code     0  startup_stm32l1xx_md.o(.text)
    TIM7_IRQHandler                          0x08000123   Thumb Code     0  startup_stm32l1xx_md.o(.text)
    TIM9_IRQHandler                          0x08000123   Thumb Code     0  startup_stm32l1xx_md.o(.text)
    USART2_IRQHandler                        0x08000123   Thumb Code     0  startup_stm32l1xx_md.o(.text)
    USART3_IRQHandler                        0x08000123   Thumb Code     0  startup_stm32l1xx_md.o(.text)
    USB_FS_WKUP_IRQHandler                   0x08000123   Thumb Code     0  startup_stm32l1xx_md.o(.text)
    USB_HP_IRQHandler                        0x08000123   Thumb Code     0  startup_stm32l1xx_md.o(.text)
    USB_LP_IRQHandler                        0x08000123   Thumb Code     0  startup_stm32l1xx_md.o(.text)
    WWDG_IRQHandler                          0x08000123   Thumb Code     0  startup_stm32l1xx_md.o(.text)
    __aeabi_ldivmod                          0x0800012d   Thumb Code    98  ldiv.o(.text)
    __aeabi_memset                           0x0800018f   Thumb Code    14  memseta.o(.text)
    __aeabi_memset4                          0x0800018f   Thumb Code     0  memseta.o(.text)
    __aeabi_memset8                          0x0800018f   Thumb Code     0  memseta.o(.text)
    __aeabi_memclr                           0x0800019d   Thumb Code     4  memseta.o(.text)
    __aeabi_memclr4                          0x0800019d   Thumb Code     0  memseta.o(.text)
    __aeabi_memclr8                          0x0800019d   Thumb Code     0  memseta.o(.text)
    _memset$wrapper                          0x080001a1   Thumb Code    18  memseta.o(.text)
    __aeabi_fdiv                             0x080001b3   Thumb Code   124  fdiv.o(.text)
    __aeabi_dadd                             0x0800022f   Thumb Code   322  dadd.o(.text)
    __aeabi_dsub                             0x08000371   Thumb Code     6  dadd.o(.text)
    __aeabi_drsub                            0x08000377   Thumb Code     6  dadd.o(.text)
    __aeabi_dmul                             0x0800037d   Thumb Code   228  dmul.o(.text)
    __aeabi_ddiv                             0x08000461   Thumb Code   222  ddiv.o(.text)
    __aeabi_i2f                              0x0800053f   Thumb Code    18  fflti.o(.text)
    __aeabi_l2f                              0x08000551   Thumb Code    44  ffltl.o(.text)
    __aeabi_i2d                              0x0800057d   Thumb Code    34  dflti.o(.text)
    __aeabi_ui2d                             0x0800059f   Thumb Code    26  dfltui.o(.text)
    __aeabi_ul2d                             0x080005b9   Thumb Code    24  dfltul.o(.text)
    __aeabi_d2iz                             0x080005d1   Thumb Code    62  dfixi.o(.text)
    __aeabi_d2uiz                            0x0800060f   Thumb Code    50  dfixui.o(.text)
    __aeabi_d2ulz                            0x08000641   Thumb Code    48  dfixul.o(.text)
    __aeabi_cdcmpeq                          0x08000671   Thumb Code     0  cdcmple.o(.text)
    __aeabi_cdcmple                          0x08000671   Thumb Code    48  cdcmple.o(.text)
    __aeabi_cdrcmple                         0x080006a1   Thumb Code    48  cdrcmple.o(.text)
    __aeabi_uldivmod                         0x080006d1   Thumb Code    98  uldiv.o(.text)
    __aeabi_llsl                             0x08000733   Thumb Code    30  llshl.o(.text)
    _ll_shift_l                              0x08000733   Thumb Code     0  llshl.o(.text)
    __aeabi_llsr                             0x08000751   Thumb Code    32  llushr.o(.text)
    _ll_ushift_r                             0x08000751   Thumb Code     0  llushr.o(.text)
    __aeabi_lasr                             0x08000771   Thumb Code    36  llsshr.o(.text)
    _ll_sshift_r                             0x08000771   Thumb Code     0  llsshr.o(.text)
    __I$use$fp                               0x08000795   Thumb Code     0  iusefp.o(.text)
    _float_round                             0x08000795   Thumb Code    18  fepilogue.o(.text)
    _float_epilogue                          0x080007a7   Thumb Code    92  fepilogue.o(.text)
    _double_round                            0x08000803   Thumb Code    30  depilogue.o(.text)
    _double_epilogue                         0x08000821   Thumb Code   156  depilogue.o(.text)
    _drnd                                    0x080008bd   Thumb Code   132  drnd.o(.text)
    __scatterload                            0x08000945   Thumb Code    28  init.o(.text)
    __scatterload_rt2                        0x08000945   Thumb Code     0  init.o(.text)
    __decompress                             0x08000969   Thumb Code     0  __dczerorl2.o(.text)
    __decompress1                            0x08000969   Thumb Code    86  __dczerorl2.o(.text)
    ADC_Cmd                                  0x080009bf   Thumb Code    22  stm32l1xx_adc.o(i.ADC_Cmd)
    ADC_CommonInit                           0x080009d5   Thumb Code    22  stm32l1xx_adc.o(i.ADC_CommonInit)
    ADC_DeInit                               0x080009f1   Thumb Code    28  stm32l1xx_adc.o(i.ADC_DeInit)
    ADC_DelaySelectionConfig                 0x08000a11   Thumb Code    16  stm32l1xx_adc.o(i.ADC_DelaySelectionConfig)
    ADC_GetConversionValue                   0x08000a21   Thumb Code     8  stm32l1xx_adc.o(i.ADC_GetConversionValue)
    ADC_GetFlagStatus                        0x08000a29   Thumb Code    18  stm32l1xx_adc.o(i.ADC_GetFlagStatus)
    ADC_Init                                 0x08000a3d   Thumb Code    74  stm32l1xx_adc.o(i.ADC_Init)
    ADC_PowerDownCmd                         0x08000a91   Thumb Code    18  stm32l1xx_adc.o(i.ADC_PowerDownCmd)
    ADC_RegularChannelConfig                 0x08000aa3   Thumb Code   344  stm32l1xx_adc.o(i.ADC_RegularChannelConfig)
    ADC_SoftwareStartConv                    0x08000bfb   Thumb Code    10  stm32l1xx_adc.o(i.ADC_SoftwareStartConv)
    ADC_StructInit                           0x08000c05   Thumb Code    26  stm32l1xx_adc.o(i.ADC_StructInit)
    ADC_TempSensorVrefintCmd                 0x08000c21   Thumb Code    30  stm32l1xx_adc.o(i.ADC_TempSensorVrefintCmd)
    AES_CMAC_Final                           0x08000c45   Thumb Code   442  cmac.o(i.AES_CMAC_Final)
    AES_CMAC_Init                            0x08000dff   Thumb Code    34  cmac.o(i.AES_CMAC_Init)
    AES_CMAC_SetKey                          0x08000e21   Thumb Code    18  cmac.o(i.AES_CMAC_SetKey)
    AES_CMAC_Update                          0x08000e33   Thumb Code   232  cmac.o(i.AES_CMAC_Update)
    AdcInit                                  0x08000f1d   Thumb Code    44  adc.o(i.AdcInit)
    AdcMcuFormat                             0x08000f4d   Thumb Code   208  adc-board.o(i.AdcMcuFormat)
    AdcMcuInit                               0x08001021   Thumb Code    36  adc-board.o(i.AdcMcuInit)
    AdcMcuRead                               0x08001049   Thumb Code   172  adc-board.o(i.AdcMcuRead)
    BME280_begin                             0x080012a5   Thumb Code   578  bme280.o(i.BME280_begin)
    BME280_init                              0x080014f9   Thumb Code    42  bme280.o(i.BME280_init)
    BME280_readFloatHumidity                 0x08001531   Thumb Code   156  bme280.o(i.BME280_readFloatHumidity)
    BME280_readFloatPressure                 0x080015d5   Thumb Code   480  bme280.o(i.BME280_readFloatPressure)
    BME280_readRegister                      0x080017bd   Thumb Code    66  bme280.o(i.BME280_readRegister)
    BME280_readTempC                         0x08001805   Thumb Code   118  bme280.o(i.BME280_readTempC)
    BME280_writeRegister                     0x08001889   Thumb Code    64  bme280.o(i.BME280_writeRegister)
    BoardDeInitMcu                           0x080018cd   Thumb Code   104  board.o(i.BoardDeInitMcu)
    BoardGetBatteryLevel                     0x0800193d   Thumb Code    76  board.o(i.BoardGetBatteryLevel)
    BoardGetRandomSeed                       0x08001991   Thumb Code    18  board.o(i.BoardGetRandomSeed)
    BoardInitMcu                             0x080019a9   Thumb Code   108  board.o(i.BoardInitMcu)
    BoardInitPeriph                          0x08001a25   Thumb Code    78  board.o(i.BoardInitPeriph)
    BoardMeasureVdd                          0x08001a81   Thumb Code    28  board.o(i.BoardMeasureVdd)
    BusFault_Handler                         0x08001abd   Thumb Code     4  sysirqhandlers.o(i.BusFault_Handler)
    DBGMCU_Config                            0x08001ac1   Thumb Code    26  stm32l1xx_dbgmcu.o(i.DBGMCU_Config)
    DebugMon_Handler                         0x08001ae1   Thumb Code     2  sysirqhandlers.o(i.DebugMon_Handler)
    DelayMs                                  0x08001ae3   Thumb Code    26  delay.o(i.DelayMs)
    EXTI0_IRQHandler                         0x08001b3d   Thumb Code    40  gpio-board.o(i.EXTI0_IRQHandler)
    EXTI15_10_IRQHandler                     0x08001b69   Thumb Code   194  gpio-board.o(i.EXTI15_10_IRQHandler)
    EXTI1_IRQHandler                         0x08001c31   Thumb Code    40  gpio-board.o(i.EXTI1_IRQHandler)
    EXTI2_IRQHandler                         0x08001c5d   Thumb Code    40  gpio-board.o(i.EXTI2_IRQHandler)
    EXTI3_IRQHandler                         0x08001c89   Thumb Code    40  gpio-board.o(i.EXTI3_IRQHandler)
    EXTI4_IRQHandler                         0x08001cb5   Thumb Code    40  gpio-board.o(i.EXTI4_IRQHandler)
    EXTI9_5_IRQHandler                       0x08001ce1   Thumb Code   152  gpio-board.o(i.EXTI9_5_IRQHandler)
    EXTI_ClearITPendingBit                   0x08001d7d   Thumb Code     6  stm32l1xx_exti.o(i.EXTI_ClearITPendingBit)
    EXTI_GetITStatus                         0x08001d89   Thumb Code    20  stm32l1xx_exti.o(i.EXTI_GetITStatus)
    EXTI_Init                                0x08001da1   Thumb Code   142  stm32l1xx_exti.o(i.EXTI_Init)
    FifoPop                                  0x08001e49   Thumb Code    30  fifo.o(i.FifoPop)
    FifoPush                                 0x08001e67   Thumb Code    24  fifo.o(i.FifoPush)
    GPIO_Init                                0x08001e7f   Thumb Code   144  stm32l1xx_gpio.o(i.GPIO_Init)
    GPIO_PinAFConfig                         0x08001f0f   Thumb Code    70  stm32l1xx_gpio.o(i.GPIO_PinAFConfig)
    GPIO_ResetBits                           0x08001f55   Thumb Code     4  stm32l1xx_gpio.o(i.GPIO_ResetBits)
    GPIO_SetBits                             0x08001f59   Thumb Code     4  stm32l1xx_gpio.o(i.GPIO_SetBits)
    GpioInit                                 0x08001f95   Thumb Code    44  gpio.o(i.GpioInit)
    GpioMcuInit                              0x08001fc1   Thumb Code   146  gpio-board.o(i.GpioMcuInit)
    GpioMcuSetInterrupt                      0x0800205d   Thumb Code   286  gpio-board.o(i.GpioMcuSetInterrupt)
    GpioMcuWrite                             0x08002181   Thumb Code    50  gpio-board.o(i.GpioMcuWrite)
    GpioSetInterrupt                         0x080021b3   Thumb Code    40  gpio.o(i.GpioSetInterrupt)
    GpioWrite                                0x080021db   Thumb Code    28  gpio.o(i.GpioWrite)
    IsFifoEmpty                              0x080021f7   Thumb Code    18  fifo.o(i.IsFifoEmpty)
    IsFifoFull                               0x08002209   Thumb Code    26  fifo.o(i.IsFifoFull)
    LoRaMacChannelAdd                        0x08002229   Thumb Code   340  loramac.o(i.LoRaMacChannelAdd)
    LoRaMacChannelRemove                     0x080023b1   Thumb Code    76  loramac.o(i.LoRaMacChannelRemove)
    LoRaMacComputeMic                        0x08002409   Thumb Code   136  loramaccrypto.o(i.LoRaMacComputeMic)
    LoRaMacInit                              0x0800249d   Thumb Code    42  loramac-api-v3.o(i.LoRaMacInit)
    LoRaMacInitNwkIds                        0x080024e1   Thumb Code    84  loramac-api-v3.o(i.LoRaMacInitNwkIds)
    LoRaMacInitialization                    0x08002535   Thumb Code   294  loramac.o(i.LoRaMacInitialization)
    LoRaMacJoinComputeMic                    0x08002725   Thumb Code    78  loramaccrypto.o(i.LoRaMacJoinComputeMic)
    LoRaMacJoinComputeSKeys                  0x0800277d   Thumb Code   144  loramaccrypto.o(i.LoRaMacJoinComputeSKeys)
    LoRaMacJoinDecrypt                       0x08002811   Thumb Code    64  loramaccrypto.o(i.LoRaMacJoinDecrypt)
    LoRaMacLinkCheckReq                      0x08002855   Thumb Code    42  loramac-api-v3.o(i.LoRaMacLinkCheckReq)
    LoRaMacMcpsRequest                       0x08002881   Thumb Code   286  loramac.o(i.LoRaMacMcpsRequest)
    LoRaMacMibGetRequestConfirm              0x080029c1   Thumb Code   236  loramac.o(i.LoRaMacMibGetRequestConfirm)
    LoRaMacMibSetRequestConfirm              0x08002b09   Thumb Code   350  loramac.o(i.LoRaMacMibSetRequestConfirm)
    LoRaMacMlmeRequest                       0x08002cbd   Thumb Code   218  loramac.o(i.LoRaMacMlmeRequest)
    LoRaMacPayloadDecrypt                    0x08002db9   Thumb Code    40  loramaccrypto.o(i.LoRaMacPayloadDecrypt)
    LoRaMacPayloadEncrypt                    0x08002de1   Thumb Code   210  loramaccrypto.o(i.LoRaMacPayloadEncrypt)
    LoRaMacSendConfirmedFrame                0x08002ec1   Thumb Code   130  loramac-api-v3.o(i.LoRaMacSendConfirmedFrame)
    LoRaMacSendFrame                         0x08002f49   Thumb Code   120  loramac-api-v3.o(i.LoRaMacSendFrame)
    LoRaMacSetAdrOn                          0x08002fc5   Thumb Code    22  loramac-api-v3.o(i.LoRaMacSetAdrOn)
    LoRaMacSetPublicNetwork                  0x08002fdb   Thumb Code    22  loramac-api-v3.o(i.LoRaMacSetPublicNetwork)
    LoRaMacTestSetDutyCycleOn                0x08002ff1   Thumb Code     6  loramac.o(i.LoRaMacTestSetDutyCycleOn)
    MemManage_Handler                        0x080030d1   Thumb Code     4  sysirqhandlers.o(i.MemManage_Handler)
    NMI_Handler                              0x08003179   Thumb Code     2  sysirqhandlers.o(i.NMI_Handler)
    NVIC_Init                                0x0800317d   Thumb Code   106  misc.o(i.NVIC_Init)
    NVIC_PriorityGroupConfig                 0x080031f5   Thumb Code    10  misc.o(i.NVIC_PriorityGroupConfig)
    PWR_EnterSTOPMode                        0x08004051   Thumb Code    54  stm32l1xx_pwr.o(i.PWR_EnterSTOPMode)
    PWR_FastWakeUpCmd                        0x08004091   Thumb Code     6  stm32l1xx_pwr.o(i.PWR_FastWakeUpCmd)
    PWR_PVDCmd                               0x0800409d   Thumb Code     6  stm32l1xx_pwr.o(i.PWR_PVDCmd)
    PWR_RTCAccessCmd                         0x080040a9   Thumb Code     6  stm32l1xx_pwr.o(i.PWR_RTCAccessCmd)
    PWR_UltraLowPowerCmd                     0x080040b5   Thumb Code     6  stm32l1xx_pwr.o(i.PWR_UltraLowPowerCmd)
    PrepareFrame                             0x080040c1   Thumb Code   906  loramac.o(i.PrepareFrame)
    RCC_AHBPeriphClockCmd                    0x08004b8d   Thumb Code    26  stm32l1xx_rcc.o(i.RCC_AHBPeriphClockCmd)
    RCC_APB1PeriphClockCmd                   0x08004bad   Thumb Code    26  stm32l1xx_rcc.o(i.RCC_APB1PeriphClockCmd)
    RCC_APB1PeriphResetCmd                   0x08004bcd   Thumb Code    26  stm32l1xx_rcc.o(i.RCC_APB1PeriphResetCmd)
    RCC_APB2PeriphClockCmd                   0x08004bed   Thumb Code    26  stm32l1xx_rcc.o(i.RCC_APB2PeriphClockCmd)
    RCC_APB2PeriphResetCmd                   0x08004c0d   Thumb Code    26  stm32l1xx_rcc.o(i.RCC_APB2PeriphResetCmd)
    RCC_GetFlagStatus                        0x08004c2d   Thumb Code    48  stm32l1xx_rcc.o(i.RCC_GetFlagStatus)
    RCC_GetSYSCLKSource                      0x08004c61   Thumb Code    10  stm32l1xx_rcc.o(i.RCC_GetSYSCLKSource)
    RCC_HSEConfig                            0x08004c71   Thumb Code    12  stm32l1xx_rcc.o(i.RCC_HSEConfig)
    RCC_HSICmd                               0x08004c81   Thumb Code     6  stm32l1xx_rcc.o(i.RCC_HSICmd)
    RCC_LSEConfig                            0x08004c8d   Thumb Code    12  stm32l1xx_rcc.o(i.RCC_LSEConfig)
    RCC_PLLCmd                               0x08004c9d   Thumb Code     6  stm32l1xx_rcc.o(i.RCC_PLLCmd)
    RCC_RTCCLKCmd                            0x08004ca9   Thumb Code     6  stm32l1xx_rcc.o(i.RCC_RTCCLKCmd)
    RCC_RTCCLKConfig                         0x08004cb5   Thumb Code    64  stm32l1xx_rcc.o(i.RCC_RTCCLKConfig)
    RCC_RTCResetCmd                          0x08004cf9   Thumb Code     6  stm32l1xx_rcc.o(i.RCC_RTCResetCmd)
    RCC_SYSCLKConfig                         0x08004d05   Thumb Code    18  stm32l1xx_rcc.o(i.RCC_SYSCLKConfig)
    RTC_AlarmCmd                             0x08004d1d   Thumb Code   112  stm32l1xx_rtc.o(i.RTC_AlarmCmd)
    RTC_Alarm_IRQHandler                     0x08004d91   Thumb Code    38  rtc-board.o(i.RTC_Alarm_IRQHandler)
    RTC_ClearFlag                            0x08004de9   Thumb Code    26  stm32l1xx_rtc.o(i.RTC_ClearFlag)
    RTC_ClearITPendingBit                    0x08004e09   Thumb Code    28  stm32l1xx_rtc.o(i.RTC_ClearITPendingBit)
    RTC_DateStructInit                       0x08004e29   Thumb Code    14  stm32l1xx_rtc.o(i.RTC_DateStructInit)
    RTC_EnterInitMode                        0x08004e39   Thumb Code    76  stm32l1xx_rtc.o(i.RTC_EnterInitMode)
    RTC_ExitInitMode                         0x08004e89   Thumb Code    14  stm32l1xx_rtc.o(i.RTC_ExitInitMode)
    RTC_GetDate                              0x08004e9d   Thumb Code    68  stm32l1xx_rtc.o(i.RTC_GetDate)
    RTC_GetITStatus                          0x08004ee9   Thumb Code    64  stm32l1xx_rtc.o(i.RTC_GetITStatus)
    RTC_GetTime                              0x08004f2d   Thumb Code    72  stm32l1xx_rtc.o(i.RTC_GetTime)
    RTC_ITConfig                             0x08004f7d   Thumb Code    94  stm32l1xx_rtc.o(i.RTC_ITConfig)
    RTC_Init                                 0x08004fe1   Thumb Code    94  stm32l1xx_rtc.o(i.RTC_Init)
    RTC_SetAlarm                             0x08005045   Thumb Code   230  stm32l1xx_rtc.o(i.RTC_SetAlarm)
    RTC_SetDate                              0x08005131   Thumb Code   190  stm32l1xx_rtc.o(i.RTC_SetDate)
    RTC_SetTime                              0x080051f9   Thumb Code   198  stm32l1xx_rtc.o(i.RTC_SetTime)
    RTC_TimeStructInit                       0x080052c9   Thumb Code    12  stm32l1xx_rtc.o(i.RTC_TimeStructInit)
    RTC_WaitForSynchro                       0x080052d5   Thumb Code    92  stm32l1xx_rtc.o(i.RTC_WaitForSynchro)
    RtcDelayMs                               0x08005355   Thumb Code    52  rtc-board.o(i.RtcDelayMs)
    RtcEnterLowPowerStopMode                 0x08005389   Thumb Code    52  rtc-board.o(i.RtcEnterLowPowerStopMode)
    RtcGetMinimumTimeout                     0x08005501   Thumb Code    18  rtc-board.o(i.RtcGetMinimumTimeout)
    RtcGetTimerElapsedTime                   0x0800551d   Thumb Code    72  rtc-board.o(i.RtcGetTimerElapsedTime)
    RtcGetTimerValue                         0x08005571   Thumb Code    52  rtc-board.o(i.RtcGetTimerValue)
    RtcInit                                  0x080055ad   Thumb Code    24  rtc-board.o(i.RtcInit)
    RtcRecoverMcuStatus                      0x080055c9   Thumb Code    96  rtc-board.o(i.RtcRecoverMcuStatus)
    RtcSetTimeout                            0x08005715   Thumb Code    82  rtc-board.o(i.RtcSetTimeout)
    SPI_Cmd                                  0x08005ab9   Thumb Code    24  stm32l1xx_spi.o(i.SPI_Cmd)
    SPI_I2S_DeInit                           0x08005ad1   Thumb Code    76  stm32l1xx_spi.o(i.SPI_I2S_DeInit)
    SPI_I2S_GetFlagStatus                    0x08005b29   Thumb Code    18  stm32l1xx_spi.o(i.SPI_I2S_GetFlagStatus)
    SPI_I2S_ReceiveData                      0x08005b3b   Thumb Code     6  stm32l1xx_spi.o(i.SPI_I2S_ReceiveData)
    SPI_I2S_SendData                         0x08005b41   Thumb Code     4  stm32l1xx_spi.o(i.SPI_I2S_SendData)
    SPI_Init                                 0x08005b45   Thumb Code    60  stm32l1xx_spi.o(i.SPI_Init)
    SX1272AntSwDeInit                        0x08005b81   Thumb Code    40  sx1272-board.o(i.SX1272AntSwDeInit)
    SX1272AntSwInit                          0x08005bb1   Thumb Code    42  sx1272-board.o(i.SX1272AntSwInit)
    SX1272CheckRfFrequency                   0x08005be5   Thumb Code     6  sx1272-board.o(i.SX1272CheckRfFrequency)
    SX1272GetPaSelect                        0x08005beb   Thumb Code     6  sx1272-board.o(i.SX1272GetPaSelect)
    SX1272GetStatus                          0x08005bf1   Thumb Code     8  sx1272.o(i.SX1272GetStatus)
    SX1272GetTimeOnAir                       0x08005bfd   Thumb Code   628  sx1272.o(i.SX1272GetTimeOnAir)
    SX1272Init                               0x08005e99   Thumb Code   110  sx1272.o(i.SX1272Init)
    SX1272IoDeInit                           0x08005f29   Thumb Code   142  sx1272-board.o(i.SX1272IoDeInit)
    SX1272IoInit                             0x08005fbd   Thumb Code   154  sx1272-board.o(i.SX1272IoInit)
    SX1272IoIrqInit                          0x0800605d   Thumb Code    88  sx1272-board.o(i.SX1272IoIrqInit)
    SX1272IsChannelFree                      0x080060b9   Thumb Code    62  sx1272.o(i.SX1272IsChannelFree)
    SX1272OnDio0Irq                          0x080060f9   Thumb Code   800  sx1272.o(i.SX1272OnDio0Irq)
    SX1272OnDio1Irq                          0x08006431   Thumb Code   398  sx1272.o(i.SX1272OnDio1Irq)
    SX1272OnDio2Irq                          0x080065d1   Thumb Code   310  sx1272.o(i.SX1272OnDio2Irq)
    SX1272OnDio3Irq                          0x08006719   Thumb Code   104  sx1272.o(i.SX1272OnDio3Irq)
    SX1272OnDio4Irq                          0x08006789   Thumb Code    40  sx1272.o(i.SX1272OnDio4Irq)
    SX1272OnTimeoutIrq                       0x080067b5   Thumb Code   168  sx1272.o(i.SX1272OnTimeoutIrq)
    SX1272Random                             0x08006869   Thumb Code    64  sx1272.o(i.SX1272Random)
    SX1272Read                               0x080068a9   Thumb Code    20  sx1272.o(i.SX1272Read)
    SX1272ReadBuffer                         0x080068bd   Thumb Code    66  sx1272.o(i.SX1272ReadBuffer)
    SX1272ReadFifo                           0x08006905   Thumb Code    18  sx1272.o(i.SX1272ReadFifo)
    SX1272ReadRssi                           0x08006917   Thumb Code    50  sx1272.o(i.SX1272ReadRssi)
    SX1272Reset                              0x08006949   Thumb Code    56  sx1272.o(i.SX1272Reset)
    SX1272Send                               0x08006985   Thumb Code   288  sx1272.o(i.SX1272Send)
    SX1272SetAntSw                           0x08006aa9   Thumb Code    62  sx1272-board.o(i.SX1272SetAntSw)
    SX1272SetAntSwLowPower                   0x08006af5   Thumb Code    30  sx1272-board.o(i.SX1272SetAntSwLowPower)
    SX1272SetChannel                         0x08006b19   Thumb Code    68  sx1272.o(i.SX1272SetChannel)
    SX1272SetMaxPayloadLength                0x08006b65   Thumb Code    52  sx1272.o(i.SX1272SetMaxPayloadLength)
    SX1272SetModem                           0x08006b9d   Thumb Code   138  sx1272.o(i.SX1272SetModem)
    SX1272SetOpMode                          0x08006c2d   Thumb Code    74  sx1272.o(i.SX1272SetOpMode)
    SX1272SetRx                              0x08006c7d   Thumb Code   498  sx1272.o(i.SX1272SetRx)
    SX1272SetRxConfig                        0x08006e91   Thumb Code   566  sx1272.o(i.SX1272SetRxConfig)
    SX1272SetSleep                           0x080070d1   Thumb Code    30  sx1272.o(i.SX1272SetSleep)
    SX1272SetStby                            0x080070fd   Thumb Code    30  sx1272.o(i.SX1272SetStby)
    SX1272SetTx                              0x08007129   Thumb Code   178  sx1272.o(i.SX1272SetTx)
    SX1272SetTxConfig                        0x080071e5   Thumb Code   732  sx1272.o(i.SX1272SetTxConfig)
    SX1272StartCad                           0x080074cd   Thumb Code    66  sx1272.o(i.SX1272StartCad)
    SX1272Write                              0x08007515   Thumb Code    16  sx1272.o(i.SX1272Write)
    SX1272WriteBuffer                        0x08007525   Thumb Code    64  sx1272.o(i.SX1272WriteBuffer)
    SX1272WriteFifo                          0x08007569   Thumb Code    18  sx1272.o(i.SX1272WriteFifo)
    SYSCFG_EXTILineConfig                    0x0800757d   Thumb Code    60  stm32l1xx_syscfg.o(i.SYSCFG_EXTILineConfig)
    Send                                     0x08007665   Thumb Code   120  loramac.o(i.Send)
    SendFrameOnChannel                       0x08007749   Thumb Code   406  loramac.o(i.SendFrameOnChannel)
    Spi2Init                                 0x08007d41   Thumb Code   240  spi-board.o(i.Spi2Init)
    SpiDeInit                                0x08007e3d   Thumb Code   108  spi-board.o(i.SpiDeInit)
    SpiFormat                                0x08007ea9   Thumb Code   156  spi-board.o(i.SpiFormat)
    SpiFrequency                             0x08007f49   Thumb Code   112  spi-board.o(i.SpiFrequency)
    SpiInOut                                 0x08007fc1   Thumb Code    60  spi-board.o(i.SpiInOut)
    SpiInit                                  0x08007ffd   Thumb Code   240  spi-board.o(i.SpiInit)
    SystemInit                               0x080080f9   Thumb Code    88  system_stm32l1xx.o(i.SystemInit)
    TIM2_IRQHandler                          0x08008161   Thumb Code    50  timer-board.o(i.TIM2_IRQHandler)
    TIM3_IRQHandler                          0x0800819d   Thumb Code    26  timer-board.o(i.TIM3_IRQHandler)
    TIM_ClearITPendingBit                    0x080081bd   Thumb Code     6  stm32l1xx_tim.o(i.TIM_ClearITPendingBit)
    TIM_Cmd                                  0x080081c3   Thumb Code    24  stm32l1xx_tim.o(i.TIM_Cmd)
    TIM_GetITStatus                          0x080081db   Thumb Code    34  stm32l1xx_tim.o(i.TIM_GetITStatus)
    TIM_ITConfig                             0x080081fd   Thumb Code    18  stm32l1xx_tim.o(i.TIM_ITConfig)
    TIM_TimeBaseInit                         0x08008211   Thumb Code    76  stm32l1xx_tim.o(i.TIM_TimeBaseInit)
    TimerGetCurrentTime                      0x08008291   Thumb Code    22  timer.o(i.TimerGetCurrentTime)
    TimerGetLowPowerEnable                   0x080082ad   Thumb Code     6  timer.o(i.TimerGetLowPowerEnable)
    TimerGetValue                            0x080082b9   Thumb Code    22  timer.o(i.TimerGetValue)
    TimerHwDelayMs                           0x080082d5   Thumb Code    62  timer-board.o(i.TimerHwDelayMs)
    TimerHwEnterLowPowerStopMode             0x0800831d   Thumb Code     2  timer-board.o(i.TimerHwEnterLowPowerStopMode)
    TimerHwGetDelayValue                     0x08008321   Thumb Code    12  timer-board.o(i.TimerHwGetDelayValue)
    TimerHwGetElapsedTime                    0x08008331   Thumb Code    42  timer-board.o(i.TimerHwGetElapsedTime)
    TimerHwGetMinimumTimeout                 0x08008361   Thumb Code    18  timer-board.o(i.TimerHwGetMinimumTimeout)
    TimerHwGetTime                           0x08008379   Thumb Code    26  timer-board.o(i.TimerHwGetTime)
    TimerHwGetTimerValue                     0x08008395   Thumb Code    18  timer-board.o(i.TimerHwGetTimerValue)
    TimerHwInit                              0x080083ad   Thumb Code   196  timer-board.o(i.TimerHwInit)
    TimerHwStart                             0x08008479   Thumb Code    62  timer-board.o(i.TimerHwStart)
    TimerIncrementDelayCounter               0x080084c1   Thumb Code    16  timer-board.o(i.TimerIncrementDelayCounter)
    TimerIncrementTickCounter                0x080084d5   Thumb Code    24  timer-board.o(i.TimerIncrementTickCounter)
    TimerInit                                0x080084f1   Thumb Code    14  timer.o(i.TimerInit)
    TimerIrqHandler                          0x08008599   Thumb Code   154  timer.o(i.TimerIrqHandler)
    TimerLowPowerHandler                     0x0800863d   Thumb Code    64  timer.o(i.TimerLowPowerHandler)
    TimerReset                               0x08008689   Thumb Code    18  timer.o(i.TimerReset)
    TimerSetLowPowerEnable                   0x0800869d   Thumb Code     6  timer.o(i.TimerSetLowPowerEnable)
    TimerSetValue                            0x080086d5   Thumb Code    48  timer.o(i.TimerSetValue)
    TimerStart                               0x08008709   Thumb Code   126  timer.o(i.TimerStart)
    TimerStop                                0x0800878d   Thumb Code   224  timer.o(i.TimerStop)
    USART1_IRQHandler                        0x08008871   Thumb Code   148  uart-board.o(i.USART1_IRQHandler)
    USART_GetITStatus                        0x0800890d   Thumb Code    84  stm32l1xx_usart.o(i.USART_GetITStatus)
    USART_ITConfig                           0x08008961   Thumb Code    74  stm32l1xx_usart.o(i.USART_ITConfig)
    USART_ReceiveData                        0x080089ab   Thumb Code    10  stm32l1xx_usart.o(i.USART_ReceiveData)
    USART_SendData                           0x080089b5   Thumb Code     8  stm32l1xx_usart.o(i.USART_SendData)
    UsageFault_Handler                       0x080089bd   Thumb Code     4  sysirqhandlers.o(i.UsageFault_Handler)
    __scatterload_copy                       0x08008a0b   Thumb Code    14  handlers.o(i.__scatterload_copy)
    __scatterload_null                       0x08008a19   Thumb Code     2  handlers.o(i.__scatterload_null)
    __scatterload_zeroinit                   0x08008a1b   Thumb Code    14  handlers.o(i.__scatterload_zeroinit)
    aes_encrypt                              0x08008a39   Thumb Code    90  aes.o(i.aes_encrypt)
    aes_set_key                              0x08008a95   Thumb Code   312  aes.o(i.aes_set_key)
    ceil                                     0x08008bd1   Thumb Code   204  ceil.o(i.ceil)
    floor                                    0x08008cfd   Thumb Code   204  floor.o(i.floor)
    main                                     0x08008dd9   Thumb Code   310  main.o(i.main)
    memcpy1                                  0x08008f71   Thumb Code    24  utilities.o(i.memcpy1)
    memcpyr                                  0x08008f89   Thumb Code    28  utilities.o(i.memcpyr)
    memset1                                  0x08008fa5   Thumb Code    20  utilities.o(i.memset1)
    rand1                                    0x0800923d   Thumb Code    32  utilities.o(i.rand1)
    randr                                    0x08009265   Thumb Code    26  utilities.o(i.randr)
    round                                    0x08009281   Thumb Code   136  round.o(i.round)
    srand1                                   0x08009385   Thumb Code     6  utilities.o(i.srand1)
    Radio                                    0x080093cc   Data          84  sx1272-board.o(.constdata)
    Datarates                                0x08009420   Data           8  loramac.o(.constdata)
    MaxPayloadOfDatarate                     0x08009428   Data           8  loramac.o(.constdata)
    MaxPayloadOfDatarateRepeater             0x08009430   Data           8  loramac.o(.constdata)
    TxPowers                                 0x08009438   Data           6  loramac.o(.constdata)
    RadioRegsInit                            0x08009440   Data          48  sx1272.o(.constdata)
    FskBandwidths                            0x08009470   Data         176  sx1272.o(.constdata)
    Region$$Table$$Base                      0x08009820   Number         0  anon$$obj.o(Region$$Table)
    Region$$Table$$Limit                     0x08009840   Number         0  anon$$obj.o(Region$$Table)
    Led1StateChanged                         0x20000028   Data           1  main.o(.data)
    TimerTickCounter                         0x20000048   Data           8  timer-board.o(.data)
    TimeoutCntValue                          0x20000058   Data           8  timer-board.o(.data)
    TimerDelayCounter                        0x20000060   Data           4  timer-board.o(.data)
    t_fine                                   0x20000064   Data           4  bme280.o(.data)
    SystemCoreClock                          0x20000068   Data           4  system_stm32l1xx.o(.data)
    PLLMulTable                              0x2000006c   Data           9  system_stm32l1xx.o(.data)
    AHBPrescTable                            0x20000075   Data          16  system_stm32l1xx.o(.data)
    LoRaMacState                             0x200001ec   Data           4  loramac.o(.data)
    TxTimeOnAir                              0x20000218   Data           8  loramac.o(.data)
    LoRaMacFlags                             0x20000221   Data           1  loramac.o(.data)
    DioIrq                                   0x20000258   Data          24  sx1272.o(.data)
    HasLoopedThroughMain                     0x20000275   Data           1  timer.o(.data)
    ComplianceTest                           0x20000308   Data          20  main.o(.bss)
    Led1                                     0x2000031c   Data          12  board.o(.bss)
    Led2                                     0x20000328   Data          12  board.o(.bss)
    Led3                                     0x20000334   Data          12  board.o(.bss)
    UsrButton                                0x20000340   Data          12  board.o(.bss)
    Adc                                      0x2000034c   Data          16  board.o(.bss)
    I2c                                      0x2000035c   Data          28  board.o(.bss)
    SPI_InitStructure                        0x200003b8   Data          18  spi-board.o(.bss)
    AntRx                                    0x200003cc   Data          12  sx1272-board.o(.bss)
    AntTx                                    0x200003d8   Data          12  sx1272-board.o(.bss)
    settings                                 0x200003e4   Data          20  bme280.o(.bss)
    calibration                              0x200003f8   Data          36  bme280.o(.bss)
    SensorsSpi                               0x2000041c   Data          52  bme280.o(.bss)
    gpio_bme280                              0x20000450   Data          12  bme280.o(.bss)
    gpio_adxl362                             0x2000045c   Data          12  bme280.o(.bss)
    SX1272                                   0x20000bb8   Data         232  sx1272.o(.bss)
    TxTimeoutTimer                           0x20000ca0   Data          20  sx1272.o(.bss)
    RxTimeoutTimer                           0x20000cb4   Data          20  sx1272.o(.bss)
    RxTimeoutSyncWord                        0x20000cc8   Data          20  sx1272.o(.bss)
    Uart1                                    0x20000cdc   Data          56  debug.o(.bss)
    fifoUart                                 0x20000d14   Data          12  debug.o(.bss)
    uartBuffer                               0x20000d20   Data          16  debug.o(.bss)
    __initial_sp                             0x20001130   Data           0  startup_stm32l1xx_md.o(STACK)



==============================================================================

Memory Map of the image

  Image Entry point : 0x080000f5

  Load Region LR_IROM1 (Base: 0x08000000, Size: 0x00009abc, Max: 0x00020000, ABSOLUTE, COMPRESSED[0x000098c0])

    Execution Region ER_IROM1 (Base: 0x08000000, Size: 0x00009840, Max: 0x00020000, ABSOLUTE)

    Base Addr    Size         Type   Attr      Idx    E Section Name        Object

    0x08000000   0x000000f4   Data   RO         1050    RESET               startup_stm32l1xx_md.o
    0x080000f4   0x00000000   Code   RO         4970  * .ARM.Collect$$$$00000000  mc_w.l(entry.o)
    0x080000f4   0x00000004   Code   RO         5302    .ARM.Collect$$$$00000001  mc_w.l(entry2.o)
    0x080000f8   0x00000004   Code   RO         5305    .ARM.Collect$$$$00000004  mc_w.l(entry5.o)
    0x080000fc   0x00000000   Code   RO         5307    .ARM.Collect$$$$00000008  mc_w.l(entry7b.o)
    0x080000fc   0x00000000   Code   RO         5309    .ARM.Collect$$$$0000000A  mc_w.l(entry8b.o)
    0x080000fc   0x00000008   Code   RO         5310    .ARM.Collect$$$$0000000B  mc_w.l(entry9a.o)
    0x08000104   0x00000000   Code   RO         5312    .ARM.Collect$$$$0000000D  mc_w.l(entry10a.o)
    0x08000104   0x00000000   Code   RO         5314    .ARM.Collect$$$$0000000F  mc_w.l(entry11a.o)
    0x08000104   0x00000004   Code   RO         5303    .ARM.Collect$$$$00002712  mc_w.l(entry2.o)
    0x08000108   0x00000024   Code   RO         1051    .text               startup_stm32l1xx_md.o
    0x0800012c   0x00000062   Code   RO         4973    .text               mc_w.l(ldiv.o)
    0x0800018e   0x00000024   Code   RO         4975    .text               mc_w.l(memseta.o)
    0x080001b2   0x0000007c   Code   RO         5241    .text               mf_w.l(fdiv.o)
    0x0800022e   0x0000014e   Code   RO         5243    .text               mf_w.l(dadd.o)
    0x0800037c   0x000000e4   Code   RO         5245    .text               mf_w.l(dmul.o)
    0x08000460   0x000000de   Code   RO         5247    .text               mf_w.l(ddiv.o)
    0x0800053e   0x00000012   Code   RO         5249    .text               mf_w.l(fflti.o)
    0x08000550   0x0000002c   Code   RO         5251    .text               mf_w.l(ffltl.o)
    0x0800057c   0x00000022   Code   RO         5253    .text               mf_w.l(dflti.o)
    0x0800059e   0x0000001a   Code   RO         5255    .text               mf_w.l(dfltui.o)
    0x080005b8   0x00000018   Code   RO         5257    .text               mf_w.l(dfltul.o)
    0x080005d0   0x0000003e   Code   RO         5261    .text               mf_w.l(dfixi.o)
    0x0800060e   0x00000032   Code   RO         5263    .text               mf_w.l(dfixui.o)
    0x08000640   0x00000030   Code   RO         5265    .text               mf_w.l(dfixul.o)
    0x08000670   0x00000030   Code   RO         5269    .text               mf_w.l(cdcmple.o)
    0x080006a0   0x00000030   Code   RO         5271    .text               mf_w.l(cdrcmple.o)
    0x080006d0   0x00000062   Code   RO         5318    .text               mc_w.l(uldiv.o)
    0x08000732   0x0000001e   Code   RO         5320    .text               mc_w.l(llshl.o)
    0x08000750   0x00000020   Code   RO         5322    .text               mc_w.l(llushr.o)
    0x08000770   0x00000024   Code   RO         5324    .text               mc_w.l(llsshr.o)
    0x08000794   0x00000000   Code   RO         5333    .text               mc_w.l(iusefp.o)
    0x08000794   0x0000006e   Code   RO         5334    .text               mf_w.l(fepilogue.o)
    0x08000802   0x000000ba   Code   RO         5336    .text               mf_w.l(depilogue.o)
    0x080008bc   0x00000088   Code   RO         5340    .text               mf_w.l(drnd.o)
    0x08000944   0x00000024   Code   RO         5342    .text               mc_w.l(init.o)
    0x08000968   0x00000056   Code   RO         5354    .text               mc_w.l(__dczerorl2.o)
    0x080009be   0x00000016   Code   RO         1206    i.ADC_Cmd           stm32l1xx_adc.o
    0x080009d4   0x0000001c   Code   RO         1207    i.ADC_CommonInit    stm32l1xx_adc.o
    0x080009f0   0x00000020   Code   RO         1212    i.ADC_DeInit        stm32l1xx_adc.o
    0x08000a10   0x00000010   Code   RO         1213    i.ADC_DelaySelectionConfig  stm32l1xx_adc.o
    0x08000a20   0x00000008   Code   RO         1219    i.ADC_GetConversionValue  stm32l1xx_adc.o
    0x08000a28   0x00000012   Code   RO         1220    i.ADC_GetFlagStatus  stm32l1xx_adc.o
    0x08000a3a   0x00000002   PAD
    0x08000a3c   0x00000054   Code   RO         1226    i.ADC_Init          stm32l1xx_adc.o
    0x08000a90   0x00000012   Code   RO         1230    i.ADC_PowerDownCmd  stm32l1xx_adc.o
    0x08000aa2   0x00000158   Code   RO         1231    i.ADC_RegularChannelConfig  stm32l1xx_adc.o
    0x08000bfa   0x0000000a   Code   RO         1233    i.ADC_SoftwareStartConv  stm32l1xx_adc.o
    0x08000c04   0x0000001a   Code   RO         1235    i.ADC_StructInit    stm32l1xx_adc.o
    0x08000c1e   0x00000002   PAD
    0x08000c20   0x00000024   Code   RO         1236    i.ADC_TempSensorVrefintCmd  stm32l1xx_adc.o
    0x08000c44   0x000001ba   Code   RO         4920    i.AES_CMAC_Final    cmac.o
    0x08000dfe   0x00000022   Code   RO         4921    i.AES_CMAC_Init     cmac.o
    0x08000e20   0x00000012   Code   RO         4922    i.AES_CMAC_SetKey   cmac.o
    0x08000e32   0x000000e8   Code   RO         4923    i.AES_CMAC_Update   cmac.o
    0x08000f1a   0x00000002   PAD
    0x08000f1c   0x00000030   Code   RO         4384    i.AdcInit           adc.o
    0x08000f4c   0x000000d4   Code   RO          264    i.AdcMcuFormat      adc-board.o
    0x08001020   0x00000028   Code   RO          265    i.AdcMcuInit        adc-board.o
    0x08001048   0x000000b0   Code   RO          266    i.AdcMcuRead        adc-board.o
    0x080010f8   0x00000144   Code   RO         3669    i.AddMacCommand     loramac.o
    0x0800123c   0x00000068   Code   RO         3670    i.AdrNextDr         loramac.o
    0x080012a4   0x00000254   Code   RO          951    i.BME280_begin      bme280.o
    0x080014f8   0x00000038   Code   RO          952    i.BME280_init       bme280.o
    0x08001530   0x000000a4   Code   RO          955    i.BME280_readFloatHumidity  bme280.o
    0x080015d4   0x000001e8   Code   RO          956    i.BME280_readFloatPressure  bme280.o
    0x080017bc   0x00000048   Code   RO          957    i.BME280_readRegister  bme280.o
    0x08001804   0x00000084   Code   RO          960    i.BME280_readTempC  bme280.o
    0x08001888   0x00000044   Code   RO          963    i.BME280_writeRegister  bme280.o
    0x080018cc   0x00000070   Code   RO          307    i.BoardDeInitMcu    board.o
    0x0800193c   0x00000054   Code   RO          308    i.BoardGetBatteryLevel  board.o
    0x08001990   0x00000018   Code   RO          309    i.BoardGetRandomSeed  board.o
    0x080019a8   0x0000007c   Code   RO          311    i.BoardInitMcu      board.o
    0x08001a24   0x0000005c   Code   RO          312    i.BoardInitPeriph   board.o
    0x08001a80   0x00000020   Code   RO          313    i.BoardMeasureVdd   board.o
    0x08001aa0   0x0000001c   Code   RO          314    i.BoardUnusedIoInit  board.o
    0x08001abc   0x00000004   Code   RO         3567    i.BusFault_Handler  sysirqhandlers.o
    0x08001ac0   0x00000020   Code   RO         1443    i.DBGMCU_Config     stm32l1xx_dbgmcu.o
    0x08001ae0   0x00000002   Code   RO         3568    i.DebugMon_Handler  sysirqhandlers.o
    0x08001ae2   0x0000001a   Code   RO         4418    i.DelayMs           delay.o
    0x08001afc   0x00000040   Code   RO         3671    i.DisableChannelInMask  loramac.o
    0x08001b3c   0x0000002c   Code   RO          381    i.EXTI0_IRQHandler  gpio-board.o
    0x08001b68   0x000000c8   Code   RO          382    i.EXTI15_10_IRQHandler  gpio-board.o
    0x08001c30   0x0000002c   Code   RO          383    i.EXTI1_IRQHandler  gpio-board.o
    0x08001c5c   0x0000002c   Code   RO          384    i.EXTI2_IRQHandler  gpio-board.o
    0x08001c88   0x0000002c   Code   RO          385    i.EXTI3_IRQHandler  gpio-board.o
    0x08001cb4   0x0000002c   Code   RO          386    i.EXTI4_IRQHandler  gpio-board.o
    0x08001ce0   0x0000009c   Code   RO          387    i.EXTI9_5_IRQHandler  gpio-board.o
    0x08001d7c   0x0000000c   Code   RO         1566    i.EXTI_ClearITPendingBit  stm32l1xx_exti.o
    0x08001d88   0x00000018   Code   RO         1570    i.EXTI_GetITStatus  stm32l1xx_exti.o
    0x08001da0   0x00000094   Code   RO         1571    i.EXTI_Init         stm32l1xx_exti.o
    0x08001e34   0x00000014   Code   RO         4443    i.FifoNext          fifo.o
    0x08001e48   0x0000001e   Code   RO         4444    i.FifoPop           fifo.o
    0x08001e66   0x00000018   Code   RO         4445    i.FifoPush          fifo.o
    0x08001e7e   0x00000090   Code   RO         1628    i.GPIO_Init         stm32l1xx_gpio.o
    0x08001f0e   0x00000046   Code   RO         1629    i.GPIO_PinAFConfig  stm32l1xx_gpio.o
    0x08001f54   0x00000004   Code   RO         1635    i.GPIO_ResetBits    stm32l1xx_gpio.o
    0x08001f58   0x00000004   Code   RO         1636    i.GPIO_SetBits      stm32l1xx_gpio.o
    0x08001f5c   0x00000038   Code   RO         4164    i.GetFskBandwidthRegValue  sx1272.o
    0x08001f94   0x0000002c   Code   RO         4490    i.GpioInit          gpio.o
    0x08001fc0   0x0000009c   Code   RO          388    i.GpioMcuInit       gpio-board.o
    0x0800205c   0x00000124   Code   RO          391    i.GpioMcuSetInterrupt  gpio-board.o
    0x08002180   0x00000032   Code   RO          392    i.GpioMcuWrite      gpio-board.o
    0x080021b2   0x00000028   Code   RO         4493    i.GpioSetInterrupt  gpio.o
    0x080021da   0x0000001c   Code   RO         4494    i.GpioWrite         gpio.o
    0x080021f6   0x00000012   Code   RO         4446    i.IsFifoEmpty       fifo.o
    0x08002208   0x0000001a   Code   RO         4447    i.IsFifoFull        fifo.o
    0x08002222   0x00000006   Code   RO         3672    i.LimitTxPower      loramac.o
    0x08002228   0x00000188   Code   RO         3673    i.LoRaMacChannelAdd  loramac.o
    0x080023b0   0x00000058   Code   RO         3674    i.LoRaMacChannelRemove  loramac.o
    0x08002408   0x00000094   Code   RO         4111    i.LoRaMacComputeMic  loramaccrypto.o
    0x0800249c   0x00000044   Code   RO         3902    i.LoRaMacInit       loramac-api-v3.o
    0x080024e0   0x00000054   Code   RO         3903    i.LoRaMacInitNwkIds  loramac-api-v3.o
    0x08002534   0x000001f0   Code   RO         3675    i.LoRaMacInitialization  loramac.o
    0x08002724   0x00000058   Code   RO         4112    i.LoRaMacJoinComputeMic  loramaccrypto.o
    0x0800277c   0x00000094   Code   RO         4113    i.LoRaMacJoinComputeSKeys  loramaccrypto.o
    0x08002810   0x00000044   Code   RO         4114    i.LoRaMacJoinDecrypt  loramaccrypto.o
    0x08002854   0x0000002a   Code   RO         3905    i.LoRaMacLinkCheckReq  loramac-api-v3.o
    0x0800287e   0x00000002   PAD
    0x08002880   0x00000140   Code   RO         3676    i.LoRaMacMcpsRequest  loramac.o
    0x080029c0   0x00000148   Code   RO         3677    i.LoRaMacMibGetRequestConfirm  loramac.o
    0x08002b08   0x000001b4   Code   RO         3678    i.LoRaMacMibSetRequestConfirm  loramac.o
    0x08002cbc   0x000000fc   Code   RO         3679    i.LoRaMacMlmeRequest  loramac.o
    0x08002db8   0x00000028   Code   RO         4115    i.LoRaMacPayloadDecrypt  loramaccrypto.o
    0x08002de0   0x000000e0   Code   RO         4116    i.LoRaMacPayloadEncrypt  loramaccrypto.o
    0x08002ec0   0x00000088   Code   RO         3910    i.LoRaMacSendConfirmedFrame  loramac-api-v3.o
    0x08002f48   0x0000007c   Code   RO         3911    i.LoRaMacSendFrame  loramac-api-v3.o
    0x08002fc4   0x00000016   Code   RO         3914    i.LoRaMacSetAdrOn   loramac-api-v3.o
    0x08002fda   0x00000016   Code   RO         3926    i.LoRaMacSetPublicNetwork  loramac-api-v3.o
    0x08002ff0   0x0000000c   Code   RO         3684    i.LoRaMacTestSetDutyCycleOn  loramac.o
    0x08002ffc   0x0000005c   Code   RO         3930    i.McpsConfirm       loramac-api-v3.o
    0x08003058   0x00000078   Code   RO         3931    i.McpsIndication    loramac-api-v3.o
    0x080030d0   0x00000004   Code   RO         3569    i.MemManage_Handler  sysirqhandlers.o
    0x080030d4   0x000000a4   Code   RO         3932    i.MlmeConfirm       loramac-api-v3.o
    0x08003178   0x00000002   Code   RO         3570    i.NMI_Handler       sysirqhandlers.o
    0x0800317a   0x00000002   PAD
    0x0800317c   0x00000078   Code   RO         1155    i.NVIC_Init         misc.o
    0x080031f4   0x00000014   Code   RO         1156    i.NVIC_PriorityGroupConfig  misc.o
    0x08003208   0x00000050   Code   RO         3686    i.OnAckTimeoutTimerEvent  loramac.o
    0x08003258   0x00000010   Code   RO            3    i.OnBackupTimerEvent  main.o
    0x08003268   0x00000018   Code   RO            4    i.OnLed1TimerEvent  main.o
    0x08003280   0x00000074   Code   RO            5    i.OnMacEvent        main.o
    0x080032f4   0x000002dc   Code   RO         3687    i.OnMacStateCheckTimerEvent  loramac.o
    0x080035d0   0x00000670   Code   RO         3688    i.OnRadioRxDone     loramac.o
    0x08003c40   0x00000060   Code   RO         3689    i.OnRadioRxError    loramac.o
    0x08003ca0   0x00000060   Code   RO         3690    i.OnRadioRxTimeout  loramac.o
    0x08003d00   0x000001e4   Code   RO         3691    i.OnRadioTxDone     loramac.o
    0x08003ee4   0x00000044   Code   RO         3692    i.OnRadioTxTimeout  loramac.o
    0x08003f28   0x0000007c   Code   RO         3693    i.OnRxWindow1TimerEvent  loramac.o
    0x08003fa4   0x00000070   Code   RO         3694    i.OnRxWindow2TimerEvent  loramac.o
    0x08004014   0x00000024   Code   RO         3695    i.OnTxDelayedTimerEvent  loramac.o
    0x08004038   0x00000018   Code   RO            6    i.OnTxNextPacketTimerEvent  main.o
    0x08004050   0x00000040   Code   RO         1941    i.PWR_EnterSTOPMode  stm32l1xx_pwr.o
    0x08004090   0x0000000c   Code   RO         1943    i.PWR_FastWakeUpCmd  stm32l1xx_pwr.o
    0x0800409c   0x0000000c   Code   RO         1945    i.PWR_PVDCmd        stm32l1xx_pwr.o
    0x080040a8   0x0000000c   Code   RO         1947    i.PWR_RTCAccessCmd  stm32l1xx_pwr.o
    0x080040b4   0x0000000c   Code   RO         1948    i.PWR_UltraLowPowerCmd  stm32l1xx_pwr.o
    0x080040c0   0x000003f0   Code   RO         3696    i.PrepareFrame      loramac.o
    0x080044b0   0x00000070   Code   RO         3697    i.PrepareRxDoneAbort  loramac.o
    0x08004520   0x00000100   Code   RO            7    i.PrepareTxFrame    main.o
    0x08004620   0x0000042c   Code   RO         3698    i.ProcessMacCommands  loramac.o
    0x08004a4c   0x00000140   Code   RO            8    i.ProcessRxFrame    main.o
    0x08004b8c   0x00000020   Code   RO         2035    i.RCC_AHBPeriphClockCmd  stm32l1xx_rcc.o
    0x08004bac   0x00000020   Code   RO         2038    i.RCC_APB1PeriphClockCmd  stm32l1xx_rcc.o
    0x08004bcc   0x00000020   Code   RO         2040    i.RCC_APB1PeriphResetCmd  stm32l1xx_rcc.o
    0x08004bec   0x00000020   Code   RO         2041    i.RCC_APB2PeriphClockCmd  stm32l1xx_rcc.o
    0x08004c0c   0x00000020   Code   RO         2043    i.RCC_APB2PeriphResetCmd  stm32l1xx_rcc.o
    0x08004c2c   0x00000034   Code   RO         2051    i.RCC_GetFlagStatus  stm32l1xx_rcc.o
    0x08004c60   0x00000010   Code   RO         2053    i.RCC_GetSYSCLKSource  stm32l1xx_rcc.o
    0x08004c70   0x00000010   Code   RO         2055    i.RCC_HSEConfig     stm32l1xx_rcc.o
    0x08004c80   0x0000000c   Code   RO         2056    i.RCC_HSICmd        stm32l1xx_rcc.o
    0x08004c8c   0x00000010   Code   RO         2059    i.RCC_LSEConfig     stm32l1xx_rcc.o
    0x08004c9c   0x0000000c   Code   RO         2066    i.RCC_PLLCmd        stm32l1xx_rcc.o
    0x08004ca8   0x0000000c   Code   RO         2068    i.RCC_RTCCLKCmd     stm32l1xx_rcc.o
    0x08004cb4   0x00000044   Code   RO         2069    i.RCC_RTCCLKConfig  stm32l1xx_rcc.o
    0x08004cf8   0x0000000c   Code   RO         2070    i.RCC_RTCResetCmd   stm32l1xx_rcc.o
    0x08004d04   0x00000018   Code   RO         2071    i.RCC_SYSCLKConfig  stm32l1xx_rcc.o
    0x08004d1c   0x00000074   Code   RO         2279    i.RTC_AlarmCmd      stm32l1xx_rtc.o
    0x08004d90   0x00000026   Code   RO          535    i.RTC_Alarm_IRQHandler  rtc-board.o
    0x08004db6   0x00000016   Code   RO         2282    i.RTC_Bcd2ToByte    stm32l1xx_rtc.o
    0x08004dcc   0x0000001c   Code   RO         2284    i.RTC_ByteToBcd2    stm32l1xx_rtc.o
    0x08004de8   0x00000020   Code   RO         2287    i.RTC_ClearFlag     stm32l1xx_rtc.o
    0x08004e08   0x00000020   Code   RO         2288    i.RTC_ClearITPendingBit  stm32l1xx_rtc.o
    0x08004e28   0x0000000e   Code   RO         2291    i.RTC_DateStructInit  stm32l1xx_rtc.o
    0x08004e36   0x00000002   PAD
    0x08004e38   0x00000050   Code   RO         2294    i.RTC_EnterInitMode  stm32l1xx_rtc.o
    0x08004e88   0x00000014   Code   RO         2295    i.RTC_ExitInitMode  stm32l1xx_rtc.o
    0x08004e9c   0x0000004c   Code   RO         2298    i.RTC_GetDate       stm32l1xx_rtc.o
    0x08004ee8   0x00000044   Code   RO         2300    i.RTC_GetITStatus   stm32l1xx_rtc.o
    0x08004f2c   0x00000050   Code   RO         2303    i.RTC_GetTime       stm32l1xx_rtc.o
    0x08004f7c   0x00000064   Code   RO         2307    i.RTC_ITConfig      stm32l1xx_rtc.o
    0x08004fe0   0x00000064   Code   RO         2308    i.RTC_Init          stm32l1xx_rtc.o
    0x08005044   0x000000ec   Code   RO         2313    i.RTC_SetAlarm      stm32l1xx_rtc.o
    0x08005130   0x000000c8   Code   RO         2314    i.RTC_SetDate       stm32l1xx_rtc.o
    0x080051f8   0x000000d0   Code   RO         2315    i.RTC_SetTime       stm32l1xx_rtc.o
    0x080052c8   0x0000000c   Code   RO         2328    i.RTC_TimeStructInit  stm32l1xx_rtc.o
    0x080052d4   0x00000060   Code   RO         2329    i.RTC_WaitForSynchro  stm32l1xx_rtc.o
    0x08005334   0x00000020   Code   RO          536    i.RtcClearStatus    rtc-board.o
    0x08005354   0x00000034   Code   RO          537    i.RtcDelayMs        rtc-board.o
    0x08005388   0x0000003c   Code   RO          538    i.RtcEnterLowPowerStopMode  rtc-board.o
    0x080053c4   0x0000013c   Code   RO          539    i.RtcGetCalendarValue  rtc-board.o
    0x08005500   0x0000001c   Code   RO          540    i.RtcGetMinimumTimeout  rtc-board.o
    0x0800551c   0x00000054   Code   RO          541    i.RtcGetTimerElapsedTime  rtc-board.o
    0x08005570   0x0000003c   Code   RO          542    i.RtcGetTimerValue  rtc-board.o
    0x080055ac   0x0000001c   Code   RO          543    i.RtcInit           rtc-board.o
    0x080055c8   0x00000068   Code   RO          544    i.RtcRecoverMcuStatus  rtc-board.o
    0x08005630   0x0000006e   Code   RO          545    i.RtcSetAlarmConfig  rtc-board.o
    0x0800569e   0x00000076   Code   RO          546    i.RtcSetConfig      rtc-board.o
    0x08005714   0x00000064   Code   RO          547    i.RtcSetTimeout     rtc-board.o
    0x08005778   0x00000238   Code   RO          548    i.RtcStartWakeUpAlarm  rtc-board.o
    0x080059b0   0x00000108   Code   RO         3699    i.RxWindowSetup     loramac.o
    0x08005ab8   0x00000018   Code   RO         2626    i.SPI_Cmd           stm32l1xx_spi.o
    0x08005ad0   0x00000058   Code   RO         2633    i.SPI_I2S_DeInit    stm32l1xx_spi.o
    0x08005b28   0x00000012   Code   RO         2634    i.SPI_I2S_GetFlagStatus  stm32l1xx_spi.o
    0x08005b3a   0x00000006   Code   RO         2637    i.SPI_I2S_ReceiveData  stm32l1xx_spi.o
    0x08005b40   0x00000004   Code   RO         2638    i.SPI_I2S_SendData  stm32l1xx_spi.o
    0x08005b44   0x0000003c   Code   RO         2639    i.SPI_Init          stm32l1xx_spi.o
    0x08005b80   0x00000030   Code   RO          708    i.SX1272AntSwDeInit  sx1272-board.o
    0x08005bb0   0x00000034   Code   RO          709    i.SX1272AntSwInit   sx1272-board.o
    0x08005be4   0x00000006   Code   RO          710    i.SX1272CheckRfFrequency  sx1272-board.o
    0x08005bea   0x00000006   Code   RO          711    i.SX1272GetPaSelect  sx1272-board.o
    0x08005bf0   0x0000000c   Code   RO         4165    i.SX1272GetStatus   sx1272.o
    0x08005bfc   0x0000029c   Code   RO         4166    i.SX1272GetTimeOnAir  sx1272.o
    0x08005e98   0x00000090   Code   RO         4167    i.SX1272Init        sx1272.o
    0x08005f28   0x00000094   Code   RO          712    i.SX1272IoDeInit    sx1272-board.o
    0x08005fbc   0x000000a0   Code   RO          713    i.SX1272IoInit      sx1272-board.o
    0x0800605c   0x0000005c   Code   RO          714    i.SX1272IoIrqInit   sx1272-board.o
    0x080060b8   0x0000003e   Code   RO         4168    i.SX1272IsChannelFree  sx1272.o
    0x080060f6   0x00000002   PAD
    0x080060f8   0x00000338   Code   RO         4169    i.SX1272OnDio0Irq   sx1272.o
    0x08006430   0x000001a0   Code   RO         4170    i.SX1272OnDio1Irq   sx1272.o
    0x080065d0   0x00000148   Code   RO         4171    i.SX1272OnDio2Irq   sx1272.o
    0x08006718   0x00000070   Code   RO         4172    i.SX1272OnDio3Irq   sx1272.o
    0x08006788   0x0000002c   Code   RO         4173    i.SX1272OnDio4Irq   sx1272.o
    0x080067b4   0x000000b4   Code   RO         4175    i.SX1272OnTimeoutIrq  sx1272.o
    0x08006868   0x00000040   Code   RO         4176    i.SX1272Random      sx1272.o
    0x080068a8   0x00000014   Code   RO         4177    i.SX1272Read        sx1272.o
    0x080068bc   0x00000048   Code   RO         4178    i.SX1272ReadBuffer  sx1272.o
    0x08006904   0x00000012   Code   RO         4179    i.SX1272ReadFifo    sx1272.o
    0x08006916   0x00000032   Code   RO         4180    i.SX1272ReadRssi    sx1272.o
    0x08006948   0x0000003c   Code   RO         4181    i.SX1272Reset       sx1272.o
    0x08006984   0x00000124   Code   RO         4182    i.SX1272Send        sx1272.o
    0x08006aa8   0x0000004c   Code   RO          715    i.SX1272SetAntSw    sx1272-board.o
    0x08006af4   0x00000024   Code   RO          716    i.SX1272SetAntSwLowPower  sx1272-board.o
    0x08006b18   0x0000004c   Code   RO         4183    i.SX1272SetChannel  sx1272.o
    0x08006b64   0x00000038   Code   RO         4184    i.SX1272SetMaxPayloadLength  sx1272.o
    0x08006b9c   0x00000090   Code   RO         4185    i.SX1272SetModem    sx1272.o
    0x08006c2c   0x00000050   Code   RO         4186    i.SX1272SetOpMode   sx1272.o
    0x08006c7c   0x00000214   Code   RO         4187    i.SX1272SetRx       sx1272.o
    0x08006e90   0x00000240   Code   RO         4188    i.SX1272SetRxConfig  sx1272.o
    0x080070d0   0x0000002c   Code   RO         4189    i.SX1272SetSleep    sx1272.o
    0x080070fc   0x0000002c   Code   RO         4190    i.SX1272SetStby     sx1272.o
    0x08007128   0x000000bc   Code   RO         4191    i.SX1272SetTx       sx1272.o
    0x080071e4   0x000002e8   Code   RO         4192    i.SX1272SetTxConfig  sx1272.o
    0x080074cc   0x00000048   Code   RO         4193    i.SX1272StartCad    sx1272.o
    0x08007514   0x00000010   Code   RO         4194    i.SX1272Write       sx1272.o
    0x08007524   0x00000044   Code   RO         4195    i.SX1272WriteBuffer  sx1272.o
    0x08007568   0x00000012   Code   RO         4196    i.SX1272WriteFifo   sx1272.o
    0x0800757a   0x00000002   PAD
    0x0800757c   0x00000040   Code   RO         2774    i.SYSCFG_EXTILineConfig  stm32l1xx_syscfg.o
    0x080075bc   0x000000a8   Code   RO         3700    i.ScheduleTx        loramac.o
    0x08007664   0x00000084   Code   RO         3701    i.Send              loramac.o
    0x080076e8   0x00000060   Code   RO            9    i.SendFrame         main.o
    0x08007748   0x000001d4   Code   RO         3702    i.SendFrameOnChannel  loramac.o
    0x0800791c   0x000002dc   Code   RO         3703    i.SetNextChannel    loramac.o
    0x08007bf8   0x00000038   Code   RO         3704    i.SetPublicNetwork  loramac.o
    0x08007c30   0x00000110   Code   RO         1057    i.SetSysClock       system_stm32l1xx.o
    0x08007d40   0x000000fc   Code   RO          655    i.Spi2Init          spi-board.o
    0x08007e3c   0x0000006c   Code   RO          656    i.SpiDeInit         spi-board.o
    0x08007ea8   0x000000a0   Code   RO          657    i.SpiFormat         spi-board.o
    0x08007f48   0x00000078   Code   RO          658    i.SpiFrequency      spi-board.o
    0x08007fc0   0x0000003c   Code   RO          659    i.SpiInOut          spi-board.o
    0x08007ffc   0x000000fc   Code   RO          660    i.SpiInit           spi-board.o
    0x080080f8   0x00000068   Code   RO         1059    i.SystemInit        system_stm32l1xx.o
    0x08008160   0x0000003c   Code   RO          791    i.TIM2_IRQHandler   timer-board.o
    0x0800819c   0x00000020   Code   RO          792    i.TIM3_IRQHandler   timer-board.o
    0x080081bc   0x00000006   Code   RO         2872    i.TIM_ClearITPendingBit  stm32l1xx_tim.o
    0x080081c2   0x00000018   Code   RO         2877    i.TIM_Cmd           stm32l1xx_tim.o
    0x080081da   0x00000022   Code   RO         2897    i.TIM_GetITStatus   stm32l1xx_tim.o
    0x080081fc   0x00000012   Code   RO         2901    i.TIM_ITConfig      stm32l1xx_tim.o
    0x0800820e   0x00000002   PAD
    0x08008210   0x00000060   Code   RO         2945    i.TIM_TimeBaseInit  stm32l1xx_tim.o
    0x08008270   0x00000020   Code   RO         4592    i.TimerExists       timer.o
    0x08008290   0x0000001c   Code   RO         4593    i.TimerGetCurrentTime  timer.o
    0x080082ac   0x0000000c   Code   RO         4594    i.TimerGetLowPowerEnable  timer.o
    0x080082b8   0x0000001c   Code   RO         4595    i.TimerGetValue     timer.o
    0x080082d4   0x00000048   Code   RO          794    i.TimerHwDelayMs    timer-board.o
    0x0800831c   0x00000002   Code   RO          795    i.TimerHwEnterLowPowerStopMode  timer-board.o
    0x0800831e   0x00000002   PAD
    0x08008320   0x00000010   Code   RO          796    i.TimerHwGetDelayValue  timer-board.o
    0x08008330   0x00000030   Code   RO          797    i.TimerHwGetElapsedTime  timer-board.o
    0x08008360   0x00000018   Code   RO          798    i.TimerHwGetMinimumTimeout  timer-board.o
    0x08008378   0x0000001a   Code   RO          799    i.TimerHwGetTime    timer-board.o
    0x08008392   0x00000002   PAD
    0x08008394   0x00000018   Code   RO          800    i.TimerHwGetTimerValue  timer-board.o
    0x080083ac   0x000000cc   Code   RO          801    i.TimerHwInit       timer-board.o
    0x08008478   0x00000048   Code   RO          802    i.TimerHwStart      timer-board.o
    0x080084c0   0x00000014   Code   RO          804    i.TimerIncrementDelayCounter  timer-board.o
    0x080084d4   0x0000001c   Code   RO          805    i.TimerIncrementTickCounter  timer-board.o
    0x080084f0   0x0000000e   Code   RO         4596    i.TimerInit         timer.o
    0x080084fe   0x00000002   PAD
    0x08008500   0x0000002c   Code   RO         4597    i.TimerInsertNewHeadTimer  timer.o
    0x0800852c   0x0000006c   Code   RO         4598    i.TimerInsertTimer  timer.o
    0x08008598   0x000000a4   Code   RO         4599    i.TimerIrqHandler   timer.o
    0x0800863c   0x0000004c   Code   RO         4600    i.TimerLowPowerHandler  timer.o
    0x08008688   0x00000012   Code   RO         4601    i.TimerReset        timer.o
    0x0800869a   0x00000002   PAD
    0x0800869c   0x0000000c   Code   RO         4602    i.TimerSetLowPowerEnable  timer.o
    0x080086a8   0x0000002c   Code   RO         4603    i.TimerSetTimeout   timer.o
    0x080086d4   0x00000034   Code   RO         4604    i.TimerSetValue     timer.o
    0x08008708   0x00000084   Code   RO         4605    i.TimerStart        timer.o
    0x0800878c   0x000000e4   Code   RO         4606    i.TimerStop         timer.o
    0x08008870   0x0000009c   Code   RO          898    i.USART1_IRQHandler  uart-board.o
    0x0800890c   0x00000054   Code   RO         3387    i.USART_GetITStatus  stm32l1xx_usart.o
    0x08008960   0x0000004a   Code   RO         3389    i.USART_ITConfig    stm32l1xx_usart.o
    0x080089aa   0x0000000a   Code   RO         3397    i.USART_ReceiveData  stm32l1xx_usart.o
    0x080089b4   0x00000008   Code   RO         3400    i.USART_SendData    stm32l1xx_usart.o
    0x080089bc   0x00000004   Code   RO         3571    i.UsageFault_Handler  sysirqhandlers.o
    0x080089c0   0x00000038   Code   RO         3705    i.ValidatePayloadLength  loramac.o
    0x080089f8   0x00000012   Code   RO         3706    i.ValueInRange      loramac.o
    0x08008a0a   0x0000000e   Code   RO         5348    i.__scatterload_copy  mc_w.l(handlers.o)
    0x08008a18   0x00000002   Code   RO         5349    i.__scatterload_null  mc_w.l(handlers.o)
    0x08008a1a   0x0000000e   Code   RO         5350    i.__scatterload_zeroinit  mc_w.l(handlers.o)
    0x08008a28   0x00000010   Code   RO         4859    i.add_round_key     aes.o
    0x08008a38   0x0000005a   Code   RO         4861    i.aes_encrypt       aes.o
    0x08008a92   0x00000002   PAD
    0x08008a94   0x0000013c   Code   RO         4862    i.aes_set_key       aes.o
    0x08008bd0   0x000000dc   Code   RO         4951    i.ceil              m_ws.l(ceil.o)
    0x08008cac   0x00000024   Code   RO         4863    i.copy_and_key      aes.o
    0x08008cd0   0x00000012   Code   RO         4864    i.copy_block        aes.o
    0x08008ce2   0x00000018   Code   RO         4865    i.copy_block_nn     aes.o
    0x08008cfa   0x00000002   PAD
    0x08008cfc   0x000000dc   Code   RO         4955    i.floor             m_ws.l(floor.o)
    0x08008dd8   0x00000198   Code   RO           10    i.main              main.o
    0x08008f70   0x00000018   Code   RO         3612    i.memcpy1           utilities.o
    0x08008f88   0x0000001c   Code   RO         3613    i.memcpyr           utilities.o
    0x08008fa4   0x00000014   Code   RO         3614    i.memset1           utilities.o
    0x08008fb8   0x00000284   Code   RO         4866    i.mix_sub_columns   aes.o
    0x0800923c   0x00000028   Code   RO         3615    i.rand1             utilities.o
    0x08009264   0x0000001a   Code   RO         3616    i.randr             utilities.o
    0x0800927e   0x00000002   PAD
    0x08009280   0x00000094   Code   RO         4968    i.round             m_ws.l(round.o)
    0x08009314   0x00000070   Code   RO         4867    i.shift_sub_rows    aes.o
    0x08009384   0x0000000c   Code   RO         3617    i.srand1            utilities.o
    0x08009390   0x00000022   Code   RO         4868    i.xor_block         aes.o
    0x080093b2   0x00000018   Data   RO          550    .constdata          rtc-board.o
    0x080093ca   0x00000002   PAD
    0x080093cc   0x00000054   Data   RO          718    .constdata          sx1272-board.o
    0x08009420   0x0000001e   Data   RO         3708    .constdata          loramac.o
    0x0800943e   0x00000002   PAD
    0x08009440   0x000000e0   Data   RO         4198    .constdata          sx1272.o
    0x08009520   0x00000300   Data   RO         4869    .constdata          aes.o
    0x08009820   0x00000020   Data   RO         5346    Region$$Table       anon$$obj.o


    Execution Region RW_IRAM1 (Base: 0x20000000, Size: 0x00001130, Max: 0x00004000, ABSOLUTE, COMPRESSED[0x00000080])

    Base Addr    Size         Type   Attr      Idx    E Section Name        Object

    0x20000000   0x00000029   Data   RW           12    .data               main.o
    0x20000029   0x00000001   Data   RW          316    .data               board.o
    0x2000002a   0x00000006   PAD
    0x20000030   0x00000012   Data   RW          551    .data               rtc-board.o
    0x20000042   0x00000001   Data   RW          719    .data               sx1272-board.o
    0x20000043   0x00000005   PAD
    0x20000048   0x0000001c   Data   RW          806    .data               timer-board.o
    0x20000064   0x00000004   Data   RW          965    .data               bme280.o
    0x20000068   0x0000001d   Data   RW         1060    .data               system_stm32l1xx.o
    0x20000085   0x00000003   PAD
    0x20000088   0x00000004   Data   RW         3618    .data               utilities.o
    0x2000008c   0x00000004   PAD
    0x20000090   0x00000192   Data   RW         3709    .data               loramac.o
    0x20000222   0x00000002   PAD
    0x20000224   0x00000010   Data   RW         3934    .data               loramac-api-v3.o
    0x20000234   0x00000020   Data   RW         4118    .data               loramaccrypto.o
    0x20000254   0x0000001d   Data   RW         4199    .data               sx1272.o
    0x20000271   0x00000001   Data   RW         4386    .data               adc.o
    0x20000272   0x00000002   PAD
    0x20000274   0x00000008   Data   RW         4607    .data               timer.o
    0x2000027c   0x000000a0   Zero   RW           11    .bss                main.o
    0x2000031c   0x0000005c   Zero   RW          315    .bss                board.o
    0x20000378   0x00000040   Zero   RW          393    .bss                gpio-board.o
    0x200003b8   0x00000012   Zero   RW          661    .bss                spi-board.o
    0x200003ca   0x00000002   PAD
    0x200003cc   0x00000018   Zero   RW          717    .bss                sx1272-board.o
    0x200003e4   0x00000084   Zero   RW          964    .bss                bme280.o
    0x20000468   0x00000400   Zero   RW         3707    .bss                loramac.o
    0x20000868   0x00000024   Zero   RW         3933    .bss                loramac-api-v3.o
    0x2000088c   0x0000022c   Zero   RW         4117    .bss                loramaccrypto.o
    0x20000ab8   0x00000224   Zero   RW         4197    .bss                sx1272.o
    0x20000cdc   0x00000054   Zero   RW         4755    .bss                debug.o
    0x20000d30   0x00000400   Zero   RW         1048    STACK               startup_stm32l1xx_md.o


==============================================================================

Image component sizes


      Code (inc. data)   RO Data    RW Data    ZI Data      Debug   Object Name

       428         12          0          0          0       2733   adc-board.o
        48          4          0          1          0       1070   adc.o
      1290         22        768          0          0      13840   aes.o
      1576         72          0          4        132       6029   bme280.o
       496         56          0          1         92       4107   board.o
       726          0          0          0          0       3685   cmac.o
         0          0          0          0         84        696   debug.o
        26          0          0          0          0        490   delay.o
       118          0          0          0          0       2944   fifo.o
      1074         46          0          0         64       6998   gpio-board.o
       112          0          0          0          0       2242   gpio.o
       874        106          0         16         36       7059   loramac-api-v3.o
     10380       1490         30        402       1024      28805   loramac.o
       716         44          0         32        556       6627   loramaccrypto.o
      1260        200          0         41        160     265781   main.o
       140         24          0          0          0       1751   misc.o
      1698        128         24         18          0       9566   rtc-board.o
       952         36          0          0         18       5115   spi-board.o
        36          8        244          0       1024        864   startup_stm32l1xx_md.o
       642         26          0          0          0       9261   stm32l1xx_adc.o
        32          6          0          0          0        616   stm32l1xx_dbgmcu.o
       184         16          0          0          0       2352   stm32l1xx_exti.o
       222          0          0          0          0       3171   stm32l1xx_gpio.o
       112         34          0          0          0       2983   stm32l1xx_pwr.o
       400         82          0          0          0       9052   stm32l1xx_rcc.o
      1520         86          0          0          0      13340   stm32l1xx_rtc.o
       200         12          0          0          0       4307   stm32l1xx_spi.o
        64          4          0          0          0        692   stm32l1xx_syscfg.o
       178         20          0          0          0       3858   stm32l1xx_tim.o
       176          0          0          0          0       3710   stm32l1xx_usart.o
       624         54         84          1         24       8743   sx1272-board.o
      6080        310        224         29        548      22469   sx1272.o
        16          0          0          0          0       2325   sysirqhandlers.o
       376         30          0         29          0      71169   system_stm32l1xx.o
       628         74          0         28          0       7773   timer-board.o
       992         84          0          8          0       9290   timer.o
       156          8          0          0          0        608   uart-board.o
       150         14          0          4          0       3915   utilities.o

    ----------------------------------------------------------------------
     34734       3108       1410        636       3764     550036   Object Totals
         0          0         32          0          0          0   (incl. Generated)
        32          0          4         22          2          0   (incl. Padding)

    ----------------------------------------------------------------------

      Code (inc. data)   RO Data    RW Data    ZI Data      Debug   Library Member Name

       220         16          0          0          0         84   ceil.o
       220         16          0          0          0         84   floor.o
       148         12          0          0          0         88   round.o
        86          0          0          0          0          0   __dczerorl2.o
         0          0          0          0          0          0   entry.o
         0          0          0          0          0          0   entry10a.o
         0          0          0          0          0          0   entry11a.o
         8          4          0          0          0          0   entry2.o
         4          0          0          0          0          0   entry5.o
         0          0          0          0          0          0   entry7b.o
         0          0          0          0          0          0   entry8b.o
         8          4          0          0          0          0   entry9a.o
        30          0          0          0          0          0   handlers.o
        36          8          0          0          0         68   init.o
         0          0          0          0          0          0   iusefp.o
        98          0          0          0          0         84   ldiv.o
        30          0          0          0          0         68   llshl.o
        36          0          0          0          0         68   llsshr.o
        32          0          0          0          0         68   llushr.o
        36          0          0          0          0        108   memseta.o
        98          0          0          0          0         92   uldiv.o
        48          0          0          0          0         68   cdcmple.o
        48          0          0          0          0         68   cdrcmple.o
       334          0          0          0          0        148   dadd.o
       222          0          0          0          0        100   ddiv.o
       186          0          0          0          0        176   depilogue.o
        62          0          0          0          0         80   dfixi.o
        50          0          0          0          0         76   dfixui.o
        48          0          0          0          0         68   dfixul.o
        34          0          0          0          0         76   dflti.o
        26          0          0          0          0         76   dfltui.o
        24          0          0          0          0         76   dfltul.o
       228          0          0          0          0         96   dmul.o
       136          4          0          0          0         92   drnd.o
       124          0          0          0          0         88   fdiv.o
       110          0          0          0          0        168   fepilogue.o
        18          0          0          0          0         68   fflti.o
        44          0          0          0          0         92   ffltl.o

    ----------------------------------------------------------------------
      2832         64          0          0          0       2428   Library Totals
         0          0          0          0          0          0   (incl. Padding)

    ----------------------------------------------------------------------

      Code (inc. data)   RO Data    RW Data    ZI Data      Debug   Library Name

       588         44          0          0          0        256   m_ws.l
       502         16          0          0          0        556   mc_w.l
      1742          4          0          0          0       1616   mf_w.l

    ----------------------------------------------------------------------
      2832         64          0          0          0       2428   Library Totals

    ----------------------------------------------------------------------

==============================================================================


      Code (inc. data)   RO Data    RW Data    ZI Data      Debug   

     37566       3172       1410        636       3764     536732   Grand Totals
     37566       3172       1410        128       3764     536732   ELF Image Totals (compressed)
     37566       3172       1410        128          0          0   ROM Totals

==============================================================================

    Total RO  Size (Code + RO Data)                38976 (  38.06kB)
    Total RW  Size (RW Data + ZI Data)              4400 (   4.30kB)
    Total ROM Size (Code + RO Data + RW Data)      39104 (  38.19kB)

==============================================================================

